:100000000C9456070C947E070C947E070C94600A9F
:100010000C948D0A0C94BA0A0C947E070C947E07FB
:100020000C947E070C947E070C947E070C947E073C
:100030000C947E070C94A4240C947E070C947E07E9
:100040000C9466250C947E070C947D270C94C42791
:100050000C947E070C947E070C947E070C947E070C
:100060000C947E070C947E07AC1FCA1FCA1FCA1FC0
:10007000CA1FCA1FCA1FCA1FCA1FCA1FCA1FCA1F38
:10008000CA1FCA1FCA1FCA1FCA1FCA1FCA1FCA1F28
:10009000CA1FCA1FCA1FCA1FCA1FCA1FCA1FCA1F18
:1000A000CA1F2B1A561A8F1AA41AC81AEC1A2C1B1C
:1000B0006A1B821B9A1BB21B001C4F1C6F1CE81C86
:1000C000271D5A1DA21DBC1DF11D171E2F1EC21E6D
:1000D000111F5F1F8D1FCA1FCA1FCA1FCA1FCA1F39
:1000E000CA1F2B1A561A8F1AA41AC81AEC1A2C1BDC
:1000F0006A1B821B9A1BB21B001C4F1C6F1CE81C46
:10010000271D5A1DA21DBC1DF11D171E2F1EC21E2C
:10011000111F5F1F8D1F43757272656E74205A2008
:10012000506F736974696F6E2069733A20005A00CA
:1001300043757272656E74205A20486F6D65205643
:10014000616C75653A005900526573657420436FA0
:100150006D70656C6574652077697468205A2044F9
:10016000696666206F663A005800466F72207570A7
:10017000646174657320616E6420746F20646F77AE
:100180006E6C6F616420746865206C617374657354
:10019000742076657273696F6E2C2076697369744A
:1001A00020687474703A2F2F623963726561746FBE
:1001B000722E636F6D00546F207669657720612021
:1001C000636F7079206F662074686973206C69634F
:1001D000656E73652C207669736974206874747019
:1001E0003A2F2F6372656174697665636F6D6D6F09
:1001F0006E732E6F72672F6C6963656E7365732FF4
:1002000062792D73612F332E302F0054686973206B
:10021000776F726B206973206C6963656E736564B8
:1002200020756E6465722074686520437265617420
:1002300069766520436F6D6D6F6E732041747472C3
:1002400069627574696F6E2D5368617265416C697E
:100250006B6520332E3020556E706F72746564208C
:100260004C6963656E73652E004239437265617433
:10027000696F6E7328746D2920616E642042394362
:10028000726561746F7228746D29206172652074C3
:10029000726164656D61726B73206F6620423943D1
:1002A00072656174696F6E732C204C4C4300436F10
:1002B0007079726967687420323031322042394374
:1002C00072656174696F6E732C204C4C4300423927
:1002D00043726561746F7228746D29204669726D6E
:1002E000776172652076657273696F6E20312E308A
:1002F0002E372072756E6E696E67206F6E206120DA
:10030000423943726561746F72204D6F64656C2071
:1003100031005742394331005631203020370045F3
:1003200052524F523A202052756E617761792058AF
:10033000204D7472207768696C6520436C6F736917
:100340006E672E20204552524F5220434F44453A6B
:1003500020004552524F523A202052756E6177610B
:10036000792058204D7472207768696C65204F7031
:10037000656E696E672E20204552524F5220434FC2
:1003800044453A20004552524F523A2020556E6B58
:100390006E6F776E20486172647761726520466186
:1003A000756C742120204552524F5220434F4445D2
:1003B0003A2000550043757272656E7420536C6963
:1003C00064652050657263656E74204F70656E20A1
:1003D00069733A200053004E65656473205265735B
:1003E00065743A20594553005231004E6565647377
:1003F0002052657365743A204E4F0052300050729F
:10040000696E74204379636C652041424F52542ECB
:100410002020486F737420434F4D4D204C6F7374F0
:1004200000510050726F6A6563746F7220697320A7
:100430004F6E0050310050726F6A6563746F7220A6
:100440006973204F6666005030004D6178696D75A4
:100450006D205A20696E2050553A20004D004C61A5
:100460006D7020486F7572733A20004C00457374AC
:10047000696D6174656420686F757273206265666A
:100480006F7265206C616D70206F7574707574206B
:10049000697320312F32206F66206F726967696E31
:1004A000616C2076616C75653A20004B005368756D
:1004B0007474657220436F6E74726F6C3A2041766B
:1004C00061696C61626C65004A31005072696E74DA
:1004D000657220556E69743A2036333500493633DB
:1004E000350043616C6962726174656420585920FB
:1004F000506978656C2053697A6520696E204D6972
:1005000063726F6E733A200048004379636C652014
:1005100046696E69736865642E00460050726F6AA2
:100520006563746F722773204E6174697665205914
:10053000205265736F6C7574696F6E3A20004500C8
:1005400050726F6A6563746F722773204E617469AD
:1005500076652058205265736F6C7574696F6E3ABA
:100560002000440050726F6A6563746F7220436F9D
:100570006E74726F6C3A2020417661696C61626CB6
:100580006500413100446966666572656E63652089
:100590006F663A2020005265736574205A65726F49
:1005A00020746F3A202000466F756E64205A657281
:1005B0006F2061743A20200052616973696E672070
:1005C000506C6174666F726D20746F2066696E6125
:1005D0006C20706F736974696F6E2E0052656C6564
:1005E000617365640042726561746865205061756D
:1005F00073652046696E69736865642E20204F70AC
:10060000656E696E6720536875747465722E00524A
:1006100061697365642E202050617573696E67206F
:10062000666F7220627265617468652E2E2E0052AC
:10063000616973696E6720506C6174666F726D20BA
:10064000746F206E657874206C6179657220706FAC
:10065000736974696F6E202B20636C656172616EC3
:100660006365204761702E0052656C656173656437
:100670002C205368757474657220436C6F736564C5
:1006800000536574746C652050617573652046690C
:100690006E69736865642E202052656164792074E8
:1006A0006F204578706F73652E004C6F77657265AB
:1006B000642E202050617573696E6720666F72200A
:1006C000736574746C652E2E2E004C6F776572699D
:1006D0006E6720506C6174666F726D20746F206E4F
:1006E000657874206C6179657220706F73697469C4
:1006F0006F6E2E0053687574746572204F70656E4E
:1007000000436F6D6D616E643A204C616D702048DE
:10071000616C66204C6966652053657420746F3A7D
:10072000200043757272656E74207A204472697677
:10073000652053706565642073657420746F2000B4
:10074000436F6D6D616E643A205A20486F6D65206D
:100750005265666572656E63652053657420546FDB
:100760002000436F6D6D616E643A204572726F7246
:100770002C2050657263656E74204F70656E205337
:1007800070656564204F7574206F662052616E67D6
:100790006500436F6D6D616E643A204163747561ED
:1007A0006C20436C6F7365205370656564205365DE
:1007B0007420546F3A2000436F6D6D616E643A206F
:1007C00050657263656E7420436C6F73652053705F
:1007D0006565642053657420546F3A2000436F6D43
:1007E0006D616E643A204572726F722C2050657292
:1007F00063656E74204F70656E205370656564206C
:100800004F7574206F662052616E676500436F6D8F
:100810006D616E643A2041637475616C204F706540
:100820006E2053706565642053657420546F3A20C0
:1008300000436F6D6D616E643A2050657263656E42
:1008400074204F70656E2053706565642053657425
:1008500020546F3A2000436F6D6D616E643A204DF5
:100860006F76696E672056415420746F3A200043BA
:100870006F6D6D616E643A204D6F76696E672056BC
:10088000415420746F204F70656E20506F736974EF
:10089000696F6E3A2000436F6D6D616E643A204D52
:1008A0006F76696E672056415420746F20436C6FD9
:1008B00073656420506F736974696F6E3A200043EA
:1008C0006F6D6D616E643A2043616C696272617430
:1008D000656420585920506978656C2053697A65A1
:1008E0002053657420546F2000436F6D6D616E64FA
:1008F0003A20566572626F736520546578742043A0
:100900006F6D6D656E7473204465616374697661A3
:100910007465642E00436F6D6D616E643A20566598
:1009200072626F7365205465787420436F6D6D65D6
:100930006E7473204163746976617465642E00433C
:100940006F6D6D616E643A2053544F5000436F6D6C
:100950006D616E643A20526573657420486F6D65F1
:1009600020506F736974696F6E7300436F6D6D61B2
:100970006E643A2042726F61646361737420496EE1
:1009800074657276616C2069733A2000436F6D6DF7
:10099000616E643A2042726F6164636173742049CE
:1009A0006E74657276616C2073657420746F3A2082
:1009B00000436F6D6D616E643A205475726E696E9E
:1009C000672042726F61646361737473204F46469F
:1009D00000436F6D6D616E643A205475726E696E7E
:1009E000672050726F6A6563746F72204F4E0043C8
:1009F0006F6D6D616E643A205475726E696E67201A
:100A000050726F6A6563746F72204F46460045727C
:100A1000726F723A205265736574206375727265E5
:100A20006E74205A20706F736974696F6E207661DE
:100A30006C7565206F7574206F66206C696D6974C4
:100A4000732E202049676E6F7265642E00436F6DB0
:100A50006D616E643A20526573657474696E6720C7
:100A600063757272656E74205A20706F7369746951
:100A70006F6E20746F3A2000436F6D6D616E643A43
:100A80002052656C6561736520616E6420637963D3
:100A90006C6520746F204E657874204C61796572A6
:100AA0002061743A20004E4F54453A20205265731D
:100AB0006574204E657874204375726520506F739D
:100AC0006974696F6E20746F206C61737420637534
:100AD000726520706F736974696F6E202B206C6172
:100AE000737420696E6372656D656E742E00455275
:100AF000524F523A2020496E76616C696420436FF0
:100B00006D6D616E643A2052656C6561736520613C
:100B10006E64206379636C6520746F204E65787411
:100B2000204C617965722061743A2000436F6D6DCD
:100B3000616E643A204D616E75616C20436F6E7416
:100B4000726F6C7320446561637469766174656467
:100B50002E00436F6D6D616E643A204D616E75615C
:100B60006C20436F6E74726F6C732041637469768E
:100B7000617465642E00436F6D6D616E643A20454B
:100B800072726F722C2050657263656E74204C6FA8
:100B9000776572205370656564204F7574206F66A9
:100BA0002052616E676500436F6D6D616E643A201F
:100BB00052504D204C6F77657220537065656420EC
:100BC00053657420546F2000436F6D6D616E643AFD
:100BD0002050657263656E74204C6F776572205388
:100BE000706565642053657420546F2000436F6DF9
:100BF0006D616E643A204572726F722C205065727E
:100C000063656E7420526169736520537065656415
:100C1000204F7574206F662052616E676500436FC8
:100C20006D6D616E643A2052504D2052616973655A
:100C30002053706565642053657420546F20004311
:100C40006F6D6D616E643A2050657263656E7420DD
:100C50005261697365205370656564205365742023
:100C6000546F2000436F6D6D616E643A2052657061
:100C70006F736974696F6E204761702073657420AB
:100C8000746F3A2000436F6D6D616E643A204E615F
:100C9000746976652059205265736F6C7574696F3D
:100CA0006E2053657420546F2000436F6D6D616E2C
:100CB000643A204E61746976652058205265736FDE
:100CC0006C7574696F6E2053657420546F200043F7
:100CD0006F6D6D616E643A20476F746F205A20709B
:100CE0006F736974696F6E2061743A2000436F6D91
:100CF0006D616E643A2052656C6561736520616E4A
:100D000064206D6F766520746F2066696E616C205B
:100D1000706F736974696F6E2061743A2000436F5D
:100D20006D6D616E643A20536574746C6520446522
:100D30006C61792073657420746F2000436F6D6D52
:100D4000616E643A20427265617468652044656C26
:100D500061792073657420746F2000436F6D6D613D
:100D60006E643A2020526571756573742043757204
:100D700072656E742053746174757300436F6D6D8A
:100D8000616E643A204379636C6520746F20696EEC
:100D9000697469616C2042617365204C6179657288
:100DA0002061743A2000436F6D6D616E643A2020BB
:100DB00041636B6E6F776C656467650000C201000C
:100DC0000100110011000C0000E100000A002500E4
:100DD0002500210000960000190039003900360076
:100DE000127A00001F004600460044008070000098
:100DF00022004D004D004A00004B000036007500F7
:100E000075007200403800004A009C009C00990068
:100E1000802500007200EC00EC00E900C012000028
:100E2000E900DA01DA01D70160090000D701B60351
:100E3000B603B303B0040000B3036E076E076B077D
:100E40002C010000DC0EC11DC11DBE1D00000000F4
:100E5000240027002A0000000000250028002B00A5
:100E600000000000230026002900040404040404F8
:100E70000404020202020202030303030303010249
:100E80000408102040800102040810200102040818
:100E9000102000000007000201000003040600000B
:100EA0000000000000008D0B3B29860B11241FBEA3
:100EB000CFEFD8E0DEBFCDBF11E0A0E0B1E0EAE4C3
:100EC000FDE502C005900D92A237B107D9F712E0F7
:100ED000A2E7B1E001C01D92AE3EB107E1F71EE00E
:100EE000CAEADEE004C02297FE010E945D2EC63AE7
:100EF000D107C9F70E948B290C94982E0C940000FE
:100F0000CF93DF93BC018230910510F462E070E072
:100F1000A091EC02B091ED02ED01E0E0F0E040E0E4
:100F200050E021C0888199818617970769F48A81EA
:100F30009B81309719F09383828304C09093ED02D4
:100F40008093EC02FE0134C06817790738F441152C
:100F5000510519F08417950708F4AC01FE018A8148
:100F60009B819C01E9012097E9F641155105A9F102
:100F7000CA01861B970B049708F4BA01E0E0F0E081
:100F80002AC08D919C91119784179507F9F46417E5
:100F9000750781F412968D919C911397309719F0F3
:100FA0009383828304C09093ED028093EC02FD0151
:100FB00032964CC0CA01861B970BFD01E80FF91F42
:100FC0006193719302978D939C9340C0FD01828140
:100FD00093819C01D9011097A1F68091EA0290912A
:100FE000EB02892B41F4809124019091250190938B
:100FF000EB028093EA0240912601509127014115AE
:10100000510541F44DB75EB78091220190912301C3
:10101000481B590B2091EA023091EB02CA01821B56
:10102000930B8617970780F0AB014E5F5F4F8417D5
:10103000950750F0420F531F5093EB024093EA0282
:10104000F9016193719302C0E0E0F0E0CF01DF911C
:10105000CF910895CF93DF93009709F450C0EC012E
:1010600022971B821A82A091EC02B091ED02109798
:1010700009F140E050E0AC17BD0708F1BB83AA833B
:10108000FE0121913191E20FF31FAE17BF0779F4F2
:101090008D919C911197280F391F2E5F3F4F3983F7
:1010A000288312968D919C9113979B838A83411577
:1010B000510571F4D093ED02C093EC0220C012965A
:1010C0008D919C911397AD01009711F0DC01D3CF66
:1010D000FA01D383C28321913191E20FF31FCE171E
:1010E000DF0769F488819981280F391F2E5F3F4FF0
:1010F000FA01318320838A819B8193838283DF91EC
:10110000CF910895A0E0B0E0E8E8F8E00C94632EF9
:101110006C01009729F4CB010E9480076C01C1C0CB
:101120008EEF882E8FEF982E8C0C9D1C8601060F5B
:10113000171F0815190508F4B2C0F401A081B18188
:10114000A617B707B8F0A530B10508F4AAC0CD01BD
:1011500004978617970708F4A4C01297A61BB70B2D
:10116000F801A193B193D4016D937C93CF010E94B8
:101170002A0897C07B01EA1AFB0AEEEFFFEFEE0E9A
:10118000FF1E36016A0E7B1EC091EC02D091ED026B
:1011900044245524AA24BB244AC0C615D705E1F52A
:1011A000488159814E155F05B8F1CA0104978E1523
:1011B0009F05B0F41296A40FB51FF401B183A0836C
:1011C0002A813B814114510431F0D20113963C93A2
:1011D0002E93129766C03093ED022093EC0261C00B
:1011E0008A819B81F80193838283425050404E193B
:1011F0005F09518340834114510431F0D2011396A9
:101200001C930E93129704C01093ED020093EC020E
:10121000F4017183608345C088819981A816B9065D
:1012200008F45C012E018A819B819C01E9012097D1
:1012300009F0B3CF8091EA029091EB0286159705F1
:10124000E9F4A616B706D0F42091260130912701C3
:101250002115310541F42DB73EB7809122019091BF
:101260002301281B390B02171307C8F41093EB0254
:101270000093EA02D4016D937C9313C0CB010E94CA
:101280008007EC01009759F0F40140815181B601CB
:101290000E947509C6010E942A086E0102C0CC2472
:1012A000DD24C601CDB7DEB7E0E10C947F2EFC0152
:1012B00088279927E89421912032E9F3293010F00A
:1012C0002E30C8F32B3241F02D3239F4689404C02B
:1012D0000E94BE09820F911D219120532A30C0F334
:1012E0001EF4909581959F4F0895FB01DC0102C08B
:1012F00001900D9241505040D8F70895FB01DC0158
:101300008D91019080190110D9F3990B0895FB017B
:10131000DC0101900D920020E1F70895FB01DC0152
:101320004150504048F001900D920020C9F701C093
:101330001D9241505040E0F70895FB019F01E89451
:101340004230C4F04532B4F44A3029F497FB1EF41D
:10135000909581959F4F642F77270E94472E805D3F
:101360008A330CF0895D8193CB010097A1F716F4C5
:101370005DE251931082C9010C94EB097AE0979FCA
:10138000902D879F802D910D11240895FA01CF9300
:10139000FF93EF932230CCF02532BCF4C22F2C2FD8
:1013A000332744275527FF93EF930E940A2EEF918E
:1013B000FF91605D6A330CF0695D6193B901CA0108
:1013C000605070408040904051F710828F919F9103
:1013D000CF910C94EB09DC01FC01672F719177230D
:1013E000E1F7329704C07C916D9370836291AE17E0
:1013F000BF07C8F30895DF92EF92FF920F931F93F8
:10140000CF93DF938C01DD24D39420917201D80116
:1014100015968C91159782271296ED91FC91139752
:101420009081982315962C9315971696CD91DC9163
:101430001797E92EFF2432C08B81282F30E0C70197
:1014400082239323892B39F18A81813099F083306B
:1014500041F48091720190E082239323892B51F40F
:101460001AC08230C1F48091720190E082239323EC
:10147000892B89F4109274018091720190E082238B
:101480009323892B11F0D09274018C818093730186
:10149000E881F98109950D80DE81C02D209761F6E4
:1014A0008BB3F801948189238BBB882309F0ADCFDE
:1014B000DF91CF911F910F91FF90EF90DF900895F2
:1014C0001F920F920FB60F9211242F933F934F93B9
:1014D0005F936F937F938F939F93AF93BF93EF939C
:1014E000FF93E0917501F091760180818093720104
:1014F00085E791E00E94FB09FF91EF91BF91AF91C9
:101500009F918F917F916F915F914F913F912F911B
:101510000F900FBE0F901F9018951F920F920FB64D
:101520000F9211242F933F934F935F936F937F9369
:101530008F939F93AF93BF93EF93FF93E0917D01C0
:10154000F0917E018081809372018DE791E00E948D
:10155000FB09FF91EF91BF91AF919F918F917F9187
:101560006F915F914F913F912F910F900FBE0F9010
:101570001F9018951F920F920FB60F9211242F9360
:101580003F934F935F936F937F938F939F93AF930B
:10159000BF93EF93FF93E0918501F09186018081E5
:1015A0008093720185E891E00E94FB09FF91EF9121
:1015B000BF91AF919F918F917F916F915F914F916B
:1015C0003F912F910F900FBE0F901F901895813073
:1015D000910509F091C06F5F7F4F09F096C0E4E676
:1015E000FEE08591949190937601809375018BE64E
:1015F00090E0909378018093770181E08093790166
:1016000010927C0110927B01E6E6FEE085919491B8
:1016100090937E0180937D018CE690E09093800111
:1016200080937F0182E08093810110928401109267
:101630008301E8E6FEE08591949190938601809382
:1016400085018DE690E0909388018093870184E086
:101650008093890110928C0110928B010E94AE251B
:1016600060939F017093A0018093A1019093A201C8
:101670000E94AE256093B3017093B4018093B501CD
:101680009093B6010E94AE256093BB017093BC019C
:101690008093BD019093BE0183EC91E06CE04DE03E
:1016A00020E00E9463240E94AE256093DF017093C6
:1016B000E0018093E1019093E2010E94AE256093E6
:1016C000E3017093E4018093E5019093E6010E94A9
:1016D000AE256093E7017093E8018093E901909350
:1016E000EA010E94AE256093EB017093EC018093B8
:1016F000ED019093EE010895892B39F46F5F7F4FD0
:1017000021F483EC91E00E94EA22089580E090E0C9
:101710006FEF7FEF0E94E70A089581E090E06FEF9E
:101720007FEF0E94E70A08950F931F93CF93DF93F3
:10173000EC018B0180915001882381F08BEC92E0C9
:1017400060E071E00E940A2A8BEC92E0BE010E94E8
:10175000C7298BEC92E0B8010E94402ADF91CF911B
:101760001F910F910895EF92FF920F931F939C0189
:101770007B010BEC12E0C801B9010E94C729C80126
:10178000B7010E94402A1F910F91FF90EF9008959A
:101790000F931F93DF93CF93CDB7DEB72E970FB67E
:1017A000F894DEBF0FBECDBF60919401709195019A
:1017B0008E010F5F1F4FC8014AE00E94B82B8EE2D6
:1017C00091E0B8010E94B30BC8010E94022C8E0167
:1017D000085F1F4F6091940170919501C8014AE024
:1017E0000E94B82B86E191E0B8010E94940BC801D9
:1017F0000E94022C2E960FB6F894DEBF0FBECDBF0E
:10180000CF91DF911F910F9108950F931F93DF9355
:10181000CF93CDB7DEB72E970FB6F894DEBF0FBECD
:10182000CDBF60912E0170912F018E010F5F1F4F70
:10183000C8014AE00E94B82B86E491E0B8010E94FA
:10184000B30BC8010E94022C8E01085F1F4F6091EC
:101850002E0170912F01C8014AE00E94B82B80E34D
:1018600091E0B8010E94940BC8010E94022C2E96B0
:101870000FB6F894DEBF0FBECDBFCF91DF911F91A1
:101880000F910895EF92FF920F931F93DF93CF93E1
:10189000CDB7DEB72E970FB6F894DEBF0FBECDBF23
:1018A0008C017E010894E11CF11CC701B8014AE0DB
:1018B0000E94B82B88E691E0B7010E94B30BC701E4
:1018C0000E94022C88E0E82EF12CEC0EFD1EC701D0
:1018D000B8014AE00E94B82B88E491E0B7010E9469
:1018E000940BC7010E94022C2E960FB6F894DEBF0F
:1018F0000FBECDBFCF91DF911F910F91FF90EF9061
:101900000895EF92FF920F931F93DF93CF93CDB77C
:10191000DEB7E8970FB6F894DEBF0FBECDBF92E0FA
:10192000E92E91E0F92E8E010F5F1F4FC801B7011C
:101930000E94532B88E193E0B8010E94B30BC801C9
:101940000E94022C8E01085F1F4FC801B7010E9440
:10195000532B82E193E0B8010E94B30BC8010E94AF
:10196000022C8E01015F1F4FC801B7010E94532B4B
:101970008EEC92E0B8010E94940BC8010E94022CE8
:101980008E010A5E1F4FC801B7010E94532B8EEAD9
:1019900092E0B8010E94940BC8010E94022C8E01B3
:1019A000035E1F4FC801B7010E94532B89E692E0E6
:1019B000B8010E94940BC8010E94022C8E010C5D9C
:1019C0001F4FC801B7010E94532B8BE092E0B80172
:1019D0000E94940BC8010E94022C8E01055D1F4FCE
:1019E000C801B7010E94532B86EB91E0B8010E9419
:1019F000940BC8010E94022C8E010E5C1F4FC8017F
:101A0000B7010E94532B8AE691E0B8010E94940B23
:101A1000C8010E94022CE8960FB6F894DEBF0FBEF4
:101A2000CDBFCF91DF911F910F91FF90EF9008955F
:101A3000EF92FF920F931F93DF93CF93CDB7DEB753
:101A40006C970FB6F894DEBF0FBECDBF7C018E0140
:101A50000F5F1F4FC801B7014AE00E94B82B83EB0C
:101A600093E0B8010E94B30BC8010E94022CE1145C
:101A7000F10461F48E01085F1F4FC80160E070E05F
:101A80004AE00E94B82B85E893E01FC081E0E81689
:101A9000F10461F48E01015F1F4FC80161E070E045
:101AA0004AE00E94B82B82E593E00FC082E0E8167E
:101AB000F10489F48E010A5E1F4FC80162E070E0F4
:101AC0004AE00E94B82B8FE193E0B8010E94940B8A
:101AD000C8010E94022C6C960FB6F894DEBF0FBEB0
:101AE000CDBFCF91DF911F910F91FF90EF9008959F
:101AF000CF92DF92EF92FF920F931F93DF93CF93DA
:101B0000CDB7DEB72E970FB6F894DEBF0FBECDBFB0
:101B100060919B0170919C01882777FD8095982F9B
:101B20000E94082D20E030E048EC52E40E94942D01
:101B300020E030E048E455E40E946D2C0E94D52C52
:101B40006B017C018E010F5F1F4FC801B6014AE097
:101B50000E94B82B85ED93E0B8010E94B30BC80139
:101B60000E94022C8E01085F1F4FC801B6014AE097
:101B70000E94B82B85EB93E0B8010E94940BC8013A
:101B80000E94022C2E960FB6F894DEBF0FBECDBF7A
:101B9000CF91DF911F910F91FF90EF90DF90CF9049
:101BA00008950F931F93DF93CF93CDB7DEB76C9754
:101BB0000FB6F894DEBF0FBECDBF80918D01882394
:101BC000D9F08E010F5F1F4FC80162E071E00E94E3
:101BD000532B8BEF93E0B8010E94B30BC8010E9416
:101BE000022C8E01085F1F4FC80162E071E00E9465
:101BF000532B8BEE93E01AC08E01015F1F4FC8017B
:101C000062E071E00E94532B88EE93E0B8010E94DD
:101C1000B30BC8010E94022C8E010A5E1F4FC8013F
:101C200062E071E00E94532B87ED93E0B8010E94BF
:101C3000940BC8010E94022C6C960FB6F894DEBF7C
:101C40000FBECDBFCF91DF911F910F910895EF92FD
:101C5000FF920F931F93DF93CF93CDB7DEB72E97ED
:101C60000FB6F894DEBF0FBECDBF02E011E07E01DB
:101C70000894E11CF11CC701B8010E94532B81E2BA
:101C800094E0B7010E94B30BC7010E94022C28E028
:101C9000E22EF12CEC0EFD1EC701B8010E94532B61
:101CA0008EEF93E0B7010E94940BC7010E94022CB3
:101CB0002E960FB6F894DEBF0FBECDBFCF91DF9149
:101CC0001F910F91FF90EF9008950F931F93DF9353
:101CD000CF93CDB7DEB76C970FB6F894DEBF0FBECB
:101CE000CDBF80914A0190914B0118161906DCF086
:101CF0008E010F5F1F4FC80162E071E00E94532BFD
:101D000087E494E0B8010E94B30BC8010E94022C42
:101D10008E01085F1F4FC80162E071E00E94532BE3
:101D200086E394E01AC08E01015F1F4FC80162E094
:101D300071E00E94532B83E394E0B8010E94B30B3F
:101D4000C8010E94022C8E010A5E1F4FC80162E08A
:101D500071E00E94532B83E294E0B8010E94940B3F
:101D6000C8010E94022C6C960FB6F894DEBF0FBE1D
:101D7000CDBFCF91DF911F910F9108950F931F93C6
:101D8000DF93CF93CDB7DEB72E970FB6F894DEBFB3
:101D90000FBECDBF60913001709131018E010F5F98
:101DA0001F4FC8014AE00E94B82B8CE594E0B801AF
:101DB0000E94B30BC8010E94022C8E01085F1F4FC6
:101DC0006091300170913101C8014AE00E94B82B46
:101DD0008AE494E0B8010E94940BC8010E94022C8E
:101DE0002E960FB6F894DEBF0FBECDBFCF91DF9118
:101DF0001F910F9108950F931F93DF93CF93CDB74A
:101E0000DEB72E970FB6F894DEBF0FBECDBF609140
:101E10004C0170914D0177FD29C080914A0190914C
:101E20004B011816190614F58E010F5F1F4FC801DC
:101E30004AE00E94B82B8BE694E0B8010E94B30BF5
:101E4000C8010E94022C8E01085F1F4F60914C0157
:101E500070914D01C8014AE00E94B82B8EE594E0D4
:101E6000B8010E94940BC8010E94022C2E960FB656
:101E7000F894DEBF0FBECDBFCF91DF911F910F91C0
:101E800008950F931F93DF93CF93CDB7DEB72E97AF
:101E90000FB6F894DEBF0FBECDBF60912C017091DC
:101EA0002D018E010F5F1F4FC8014AE00E94B82B21
:101EB0008BEA94E0B8010E94B30BC8010E94022C87
:101EC0008E01085F1F4F60912C0170912D01C80198
:101ED0004AE00E94B82B8DE694E0B8010E94940B72
:101EE000C8010E94022C2E960FB6F894DEBF0FBEDA
:101EF000CDBFCF91DF911F910F910895EF92FF9287
:101F00000F931F93DF93CF93CDB7DEB72E970FB606
:101F1000F894DEBF0FBECDBF02E011E07E01089451
:101F2000E11CF11CC701B8010E94532B88EC94E01E
:101F3000B7010E94B30BC7010E94022C38E0E32EC8
:101F4000F12CEC0EFD1EC701B8010E94532B8DEA47
:101F500094E0B7010E94940BC7010E94022C2E96B8
:101F60000FB6F894DEBF0FBECDBFCF91DF911F91AA
:101F70000F91FF90EF900895EF92FF920F931F93B0
:101F8000DF93CF93CDB7DEB72E970FB6F894DEBFB1
:101F90000FBECDBF02E011E07E010894E11CF11CF0
:101FA000C701B8010E94532B8DED94E0B7010E9448
:101FB000B30BC7010E94022C48E0E42EF12CEC0E7A
:101FC000FD1EC701B8010E94532B8BEC94E0B701B2
:101FD0000E94940BC7010E94022C2E960FB6F89413
:101FE000DEBF0FBECDBFCF91DF911F910F91FF904C
:101FF000EF9008950F931F93DF93CF93CDB7DEB784
:102000002E970FB6F894DEBF0FBECDBF6091920140
:10201000709193018E010F5F1F4FC8014AE00E942B
:10202000B82B88E095E0B8010E94B30BC8010E946C
:10203000022C8E01085F1F4F6091920170919301F5
:10204000C8014AE00E94B82B82EE94E0B8010E94D9
:10205000940BC8010E94022C2E960FB6F894DEBF96
:102060000FBECDBFCF91DF911F910F910895EF92D9
:10207000FF920F931F93DF93CF93CDB7DEB72E97C9
:102080000FB6F894DEBF0FBECDBF02E011E07E01B7
:102090000894E11CF11CC701B8010E94532B8AE18E
:1020A00095E0B7010E94B30BC7010E94022C58E0D3
:1020B000E52EF12CEC0EFD1EC701B8010E94532B3A
:1020C0008AE095E0B7010E94940BC7010E94022CA0
:1020D0002E960FB6F894DEBF0FBECDBFCF91DF9125
:1020E0001F910F91FF90EF9008950F931F93DF932F
:1020F000CF93CDB7DEB72E970FB6F894DEBF0FBEE5
:10210000CDBF60919001709191018E010F5F1F4FC3
:10211000C8014AE00E94B82B8EE395E0B8010E9406
:10212000B30BC8010E94022C8E01085F1F4F609103
:10213000900170919101C8014AE00E94B82B8CE196
:1021400095E0B8010E94940BC8010E94022C2E96C3
:102150000FB6F894DEBF0FBECDBFCF91DF911F91B8
:102160000F9108950F931F93DF93CF93CDB7DEB7F1
:102170002E970FB6F894DEBF0FBECDBF60918E01D3
:1021800070918F018E010F5F1F4FC8014AE00E94BE
:10219000B82B82E695E0B8010E94B30BC8010E94FB
:1021A000022C8E01085F1F4F60918E0170918F018C
:1021B000C8014AE00E94B82B80E495E0B8010E9473
:1021C000940BC8010E94022C2E960FB6F894DEBF25
:1021D0000FBECDBFCF91DF911F910F910895EF9268
:1021E000FF920F931F93DF93CF93CDB7DEB72E9758
:1021F0000FB6F894DEBF0FBECDBF02E011E07E0146
:102200000894E11CF11CC701B8010E94532B82E81D
:1022100095E0B7010E94B30BC7010E94022C68E051
:10222000E62EF12CEC0EFD1EC701B8010E94532BC7
:1022300084E695E0B7010E94940BC7010E94022C2E
:102240002E960FB6F894DEBF0FBECDBFCF91DF91B3
:102250001F910F91FF90EF900895CF92DF92EF9230
:10226000FF920F931F937C018B0173E3C72E72E0E3
:10227000D72EC601B701F80140810E949824089426
:10228000E11CF11CC601B701F80141810E949824AC
:1022900082E090E01F910F91FF90EF90DF90CF9040
:1022A00008958AE090E06CE271E00E942D1108959B
:1022B00088E090E062E971E00E942D11089586E0C7
:1022C00090E060E971E00E942D11089584E090E0B3
:1022D0006EE871E00E942D11089582E090E06EE2B8
:1022E00071E00E942D110895CF92DF92EF92FF923C
:1022F0000F931F937C018B01E3E3CE2EE2E0DE2EF1
:10230000C601B7010E949124F80180830894E11C62
:10231000F11CC601B7010E949124F801818382E07B
:1023200090E01F910F91FF90EF90DF90CF90089574
:10233000DF93CF93CDB7DEB72E970FB6F894DEBFFD
:102340000FBECDBF80E090E0BE016F5F7F4F0E9467
:10235000741189819A818B36910509F443C08BE60B
:1023600090E09C838B8380E090E0BE016D5F7F4FA7
:102370000E942D1189E193E29E838D8382E090E09B
:10238000BE016B5F7F4F0E942D1180E094E0988723
:102390008F8384E090E0BE01695F7F4F0E942D1122
:1023A00080E093E09A87898786E090E0BE01675FCE
:1023B0007F4F0E942D1184E690E09C878B8788E0F8
:1023C00090E0BE01655F7F4F0E942D1180ED97E088
:1023D0009E878D878AE090E0BE01635F7F4F0E94F9
:1023E0002D111EC082E090E06EE271E00E94741137
:1023F00084E090E06EE871E00E94741186E090E065
:1024000060E971E00E94741188E090E062E971E097
:102410000E9474118AE090E06CE271E00E947411F5
:102420002E960FB6F894DEBF0FBECDBFCF91DF91D1
:102430000895CF93DF93DB010D900020E9F711970A
:10244000A61BB70BEC01E881F9810280F381E02D36
:10245000AD010995DF91CF910895DF92EF92FF9240
:102460000F931F93DF93CF93CDB7DEB7CF54D040F8
:102470000FB6F894DEBF0FBECDBF0E94AE252091EF
:10248000E3013091E4014091E5015091E601621BC6
:10249000730B840B950B261737074807590750F520
:1024A00081E0809349018FEF9FEF90934B018093E0
:1024B0004A0190934D0180934C0183EC91E00E947E
:1024C000B52283EC91E040E855E260E070E00E94C4
:1024D000F82183EC91E063E071E00E9419120E9400
:1024E000AE256093E3017093E4018093E50190933E
:1024F000E601CDC083EC91E00E941423892BA9F55D
:1025000080914A0190914B0197FD14C00E94AE2525
:102510002091DF013091E0014091E1015091E20111
:10252000621B730B840B950B69587341804090407C
:1025300008F4ADC00E94AE256093DF017093E00106
:102540008093E1019093E20180914901882331F069
:1025500010924B0110924A011092490183EC91E0D4
:1025600063E071E00E94191292C00E94AE25609350
:10257000E3017093E4018093E5019093E6018E01FD
:102580000F5F1F4FC80162E071E00E94532BF8E01B
:10259000EF2EF12CEC0EFD1ED02E012F16C083EC79
:1025A00091E00E94F322682F8D30B1F08A30A1F0C3
:1025B000882391F0C7010E94E92B8D2D902FB70140
:1025C0000E94182BC7010E94022C83EC91E00E940C
:1025D0001423181619061CF37E010894E11CF11C43
:1025E000C70168E071E00E94922A882329F01092C6
:1025F0004B0110924A0134C0C7016CE071E00E94A7
:10260000922A882369F081E090E090934B018093B7
:102610004A0183EC91E06FE071E00E94191220C042
:10262000C70164E171E00E94922A882339F4C7014E
:1026300066E171E00E94922A8823B9F0CE010196EA
:1026400062E071E00E946D2B0BC080914C01909173
:102650004D012817390724F030934D0120934C0188
:10266000CE0101960E94022C12C08E01015F1F4F05
:10267000C701B80140E450E020E030E00E94652A44
:10268000C8010E9457099C0197FFDFCFE9CFC15BCA
:10269000DF4F0FB6F894DEBF0FBECDBFCF91DF91F5
:1026A0001F910F91FF90EF90DF90089580914E0160
:1026B00090914F01181619060CF072C00E94AE25B9
:1026C0002091EB013091EC014091ED015091EE0130
:1026D000621B730B840B950B20914E0130914F01BF
:1026E000442737FD4095542F2617370748075907C9
:1026F00008F056C00E94AE256093EB017093EC0188
:102700008093ED019093EE010E94650E0E94FB0EF6
:102710008091AB019091AC01892B09F441C00E94DA
:10272000AE252091E7013091E8014091E9015091F7
:10273000EA01621B730B840B950B615C744D814045
:10274000904070F10E94270E1092AC011092AB01E4
:1027500083EC91E068E171E00E94191268EE73E089
:1027600080E090E00E94BC2510929E0110929D0195
:1027700006C061E070E080E090E00E94BC2580919E
:102780009801909199010197A1F380919401909102
:102790009501909397018093960181E08093440185
:1027A0000895EF92FF920F931F93DF93CF93CDB7CE
:1027B000DEB7A0970FB6F894DEBF0FBECDBF19826B
:1027C00000E010E07E010894E11CF11C8BEC92E02B
:1027D0000E94932818161906CCF78BEC92E00E9401
:1027E000C428F701E00FF11F80838A3029F0882385
:1027F00019F00F311105A9F4CE010196080F191F28
:10280000F80110820E945709A0960FB6F894DEBF17
:102810000FBECDBFCF91DF911F910F91FF90EF9031
:1028200008950F5F1F4FD2CF82309105A9F08330FA
:1028300091051CF4019731F408C08330910579F0BB
:102840000497C1F088E060E002C088E061E00E9487
:10285000D62687E060E009C088E060E002C088E03A
:1028600061E00E94D62687E061E00E94D62686E0DD
:1028700060E00AC088E061E00E94D62687E061E05F
:102880000E94D62686E061E00E94D6260895CF9366
:10289000DF93EC018091980190919901892B99F433
:1028A00084E06C2F0E94D62689E060E00E94D62644
:1028B00085E061E00E94D62681E090E09093990146
:1028C000809398011DC084E06C2F0E94D62689E079
:1028D00060E00E94D62685E060E00E94D626109235
:1028E00099011092980180919401909195012197FE
:1028F00011F4019701C00196909395018093940182
:10290000DF91CF91089589E061E00E94D62684E0AE
:1029100060E00E94D62685E060E00E94D6261092F4
:1029200099011092980108959C01442737FD409524
:10293000542F60EF79E482E090E00E942C2E84E333
:1029400092E0BA01A9010E94CB2408950F931F932E
:10295000DF93CF93CDB7DEB7C654D0400FB6F8940F
:10296000DEBF0FBECDBF8091AB019091AC01853031
:10297000910509F4C0C08630910564F48230910558
:1029800009F45BC08330910509F484C0019709F014
:10299000B5C10CC08730910509F41EC1873091057F
:1029A0000CF4F1C0089709F0A9C15FC180912A0118
:1029B00090912B01049709F0A1C18E010F5F1F4F69
:1029C000C80162E071E00E94532B84EF96E0B801E9
:1029D0000E94940BC8010E94022C20919401309116
:1029E00095018091AF019091B0012817390711F13D
:1029F0008E01085F1F4FC80162E071E00E94532BF7
:102A00008AEC96E0B8010E94940BC8010E94022C47
:102A10008091AF019091B0019093970180939601BE
:102A200080914701909148010E94941410922901CD
:102A30001092280182E090E028C02091940130910A
:102A4000950180919601909197012817390709F017
:102A500055C18E01015F1F4FC80162E071E00E9405
:102A6000532B8AEA96E0B8010E94940BC8010E9499
:102A7000022C0E94AE256093BB017093BC01809331
:102A8000BD019093BE0183E090E09093AC018093F0
:102A9000AB0134C10E94AE252091BB013091BC0135
:102AA0004091BD015091BE01621B730B840B950BCD
:102AB0002091BF013091C0014091C1015091C201EC
:102AC000261737074807590708F018C18E010A5E14
:102AD0001F4FC80162E071E00E94532B81E896E02D
:102AE000B8010E94940BC8010E94022C0E9437106A
:102AF00084E090E0CACF80912A0190912B01049745
:102B000009F0FCC08E01035E1F4FC80162E071E056
:102B10000E94532B88E696E0B8010E94940BC801EE
:102B20000E94022C8E010C5D1F4FC80162E071E013
:102B30000E94532B8FE296E0B8010E94940BC801CB
:102B40000E94022C8091B1019091B2012091AF01BD
:102B50003091B001820F931F90939701809396015B
:102B600097FF04C010929701109296018091450141
:102B7000909146010E94941410922901109228010C
:102B800086E090E082CF2091940130919501809170
:102B90009601909197012817390709F0AFC08E016F
:102BA000055D1F4FC80162E071E00E94532B8FE06A
:102BB00096E0B8010E94940BC8010E94022C0E946A
:102BC000AE256093B3017093B4018093B5019093E7
:102BD000B60187E090E059CF0E94AE252091B30165
:102BE0003091B4014091B5015091B601621B730B55
:102BF000840B950B2091B7013091B8014091B90138
:102C00005091BA01261737074807590708F076C0D0
:102C10008E010E5C1F4FC80162E071E00E94532BD1
:102C200085EE95E0B8010E94940BC8010E94022C29
:102C3000809138019091390190933D0180933C013E
:102C40008FE790E090933F0180933E0180E89CE005
:102C500090939E0180939D0183E090E090932B01DF
:102C600080932A0181E090E010CF80912A01909119
:102C70002B01049709F042C08E01075C1F4FC80169
:102C800062E071E00E94532B8CED95E0B8010E9448
:102C9000940BC8010E94022C8E01005C1F4FC801DA
:102CA00062E071E00E94532B88EB95E0B8010E942E
:102CB000940BC8010E94022C2091AF013091B00109
:102CC00080919401909195018217930724F4309399
:102CD00097012093960180914501909146010E94B1
:102CE0009414109229011092280181E080934401EC
:102CF0001092AC011092AB010E943710CA5BDF4FFB
:102D00000FB6F894DEBF0FBECDBFCF91DF911F91FC
:102D10000F91089520919401309195018091960131
:102D200090919701821793071CF481E090E005C011
:102D3000281739072CF480E090E00E94471411C056
:102D40002817390771F48091280190912901892B66
:102D500041F40E94831482E090E0909329018093D3
:102D6000280160919B0170919C0120919D013091FF
:102D70009E01621B730B882777FD8095982F0E9418
:102D8000082D20E030E040E15FE30E94942D0E9496
:102D9000D52CAB017093A6016093A50116161706FA
:102DA0003CF481E090E09093A4018093A30104C0DF
:102DB0001092A4011092A3019A0157FF04C0222788
:102DC0003327241B350B80913E0190913F01820FE8
:102DD000931F9093A8018093A70120913C0130910B
:102DE0003D012817390724F43093A8012093A70147
:102DF000435E5F4F4B33510558F51092A801109276
:102E0000A7010E94AE2520919F013091A001409121
:102E1000A1015091A201621B730B840B950B2091B1
:102E200040013091410140914201509143012617E8
:102E300037074807590760F480912A0190912B01C8
:102E4000039731F485E090E090932B0180932A0161
:102E500082E06091A3010E94D6268091A901882377
:102E600021F083E060E070E005C06091A7017091FF
:102E7000A80183E00E945026089581E08093A90173
:102E80008EE00E942A27892BA1F483E06FE670E090
:102E90000E94502682E061E00E94D6268EE00E94C9
:102EA0002A27892B91F383E060E070E00E9450268E
:102EB00015C083E06FE670E00E94502682E060E07B
:102EC0000E94D6268EE00E942A27892B91F783E064
:102ED00060E070E00E9450260E943D1780919B01A7
:102EE00090919C0190939E0180939D011092A90165
:102EF00008950F931F93DF93CF93CDB7DEB76597F8
:102F00000FB6F894DEBF0FBECDBF082F84E690E069
:102F10000E9494148FE00E942A27892B71F18FE080
:102F20000E942A27892B89F02091940130919501E4
:102F30002B5F3F4F809196019091970182179307E5
:102F400021F030939701209396018FE00E942A2769
:102F5000892B29F761E070E080E090E00E94BC25B9
:102F60002091960130919701809194019091950163
:102F70002817390779F781E02FC08FE00E942A27B0
:102F8000892B89F420919401309195012150304092
:102F900080919601909197018217930721F03093C9
:102FA0009701209396018FE00E942A27892B29F30D
:102FB00061E070E080E090E00E94BC2560919601A5
:102FC000709197018091940190919501681779070C
:102FD00079F7002321F480E00E94791762C08E0106
:102FE0000F5F1F4FC8014AE00E94B82B87EA95E0A7
:102FF000B8010E94940BC8010E94022C8E01085F48
:103000001F4F60912E0170912F01C8014AE00E946C
:10301000B82B86E995E0B8010E94940BC8010E9484
:10302000022C8E01015F1F4F6091940170919501F8
:1030300080912E0190912F01681B790BC8014AE005
:103040000E94B82B85E895E0B8010E94940BC80156
:103050000E94022C80918D01882359F08091940167
:103060009091950120912E0130912F01821B930B9D
:1030700002C080E090E00E94420C80912E0190916D
:103080002F019093950180939401909397018093E1
:10309000960180913401909135010E9494140E9410
:1030A000831465960FB6F894DEBF0FBECDBFCF91E7
:1030B000DF911F910F91089582E00E942A270197C6
:1030C000C9F48091A901882391F482E090E00E94E4
:1030D000180D8091940190919501909397018093A0
:1030E000960183EC91E068E171E00E94191281E0A1
:1030F0008093A901089582E00E942A27019749F44C
:10310000809136019091370190939C0180939B01AF
:1031100008958091A901882391F481E090E00E94B4
:10312000180D80919401909195019093970180934F
:10313000960183EC91E068E171E00E94191281E050
:103140008093A90108950E94AE2560939F0170931A
:10315000A0018093A1019093A2018AE00E942A27F6
:1031600020919B0130919C01892B19F02F5F3F4FDB
:1031700002C02150304030939C0120939B01089560
:103180000E94AE2560939F017093A0018093A101DE
:103190009093A2018AE00E942A2720919B013091FE
:1031A0009C01892B19F42F5F3F4F02C02150304002
:1031B00030939C0120939B0108950E94AE2560935B
:1031C0009F017093A0018093A1019093A2018BE0D5
:1031D0000E942A2720919B0130919C01892B19F490
:1031E0002F5F3F4F02C02150304030939C0120930D
:1031F0009B0108950E94AE2560939F017093A001EA
:103200008093A1019093A2018BE00E942A27209134
:103210009B0130919C01892B19F02F5F3F4F02C019
:103220002150304030939C0120939B0108951F93BF
:1032300080914401813009F07BC083E10E942A27FC
:10324000892BE9F48FE690E090933D0180933C0157
:103250008FE390E090933F0180933E0180919B012A
:1032600090919C018456904090939E0180939D0183
:1032700097FF29C010929E0110929D0124C082E107
:103280000E942A27892B49F58FE690E090933D0113
:1032900080933C018FE390E090933F0180933E0147
:1032A00080919B0190919C018C599F4F90939E011E
:1032B00080939D0181589C4034F080E89CE090937D
:1032C0009E0180939D0183E090E090932B01809379
:1032D0002A0181E080939A010EC080919A0188238F
:1032E00051F080919B0190919C0190939E0180935D
:1032F0009D0110929A0181E10E942A27892B31F4C5
:10330000809194019091950102970AC080E10E94FA
:103310002A27892B69F48091940190919501029656
:1033200090939701809396011092290110922801A1
:103330008091280190912901029741F481E090E069
:1033400090932901809328010E94C80B80912A0143
:1033500090912B01059741F484E090E090932B012C
:1033600080932A010E94780D1091AA011130F9F47E
:103370001092AA0180E00E9479170E943D171092D6
:10338000AE011092AD0110929E0110929D0182E05B
:1033900090E0909329018093280183E090E090933E
:1033A0002B0180932A0110938D010E94D10D0E9460
:1033B000A6148091280190912901892B41F08091D8
:1033C0002A0190912B01039711F00E942D120E9467
:1033D00056131F910895F89483EC91E00E94EF2119
:1033E00078940895CF92DF92EF92FF920F931F93FC
:1033F000DF93CF93CDB7DEB7CB53D1400FB6F89460
:10340000DEBF0FBECDBF0E94AE256093E701709373
:10341000E8018093E9019093EA018BEC92E00E942D
:103420009328892B09F4B6C58BEC92E00E94C4283E
:10343000992787FD9095A92FB92FFC01B497E735FF
:10344000F10508F0A7C5EC5CFF4FEE0FFF1F0590DC
:10345000F491E02D09948E010F5F1F4FC80162E0C7
:1034600071E00E94532B86EA9DE0B8010E94940B04
:10347000C8010E94022C0E94810C0E94EF100E9441
:103480007E0F0E94BC0F0E94410F0E94BE0E0E9440
:10349000D10D0E94050C0E94780D0E94C80B0E945D
:1034A000B2100E9475100E94FA0F74C51092440168
:1034B0001092AE011092AD010E94D113BC01909305
:1034C000B0018093AF018E01085F1F4FC8014AE031
:1034D0000E94B82B8CE79DE0B8010E94940BC801B4
:1034E0000E94022C809138019091390190933D0106
:1034F00080933C018FE790E090933F0180933E01E1
:1035000080E89CE090939E0180939D0183E090E091
:1035100090932B0180932A0181E090E098C08E0166
:10352000015F1F4FC80162E071E00E94532B8BE5E1
:103530009DE0B8010E94940BC8010E94022C0E94D9
:10354000C80B0E94780D26C50E94D1139C0197FDDF
:103550000DC0C901AA2797FDA095BA2F8093B70186
:103560009093B801A093B901B093BA018E010A5E9D
:103570001F4F4091B7015091B8016091B90170910E
:10358000BA01C8012AE00E94862B8CE39DE0FCC4AE
:103590000E94D1139C0197FD0DC0C901AA2797FD78
:1035A000A095BA2F8093BF019093C001A093C10151
:1035B000B093C2018E01035E1F4F4091BF01509135
:1035C000C0016091C1017091C201C8012AE00E944E
:1035D000862B8EE19DE0D8C481E0809344018091E8
:1035E000AF019091B0019093AE018093AD010E9424
:1035F000D113BC019093B0018093AF018E010C5D9B
:103600001F4FC8014AE00E94B82B8DEE9CE0B80124
:103610000E94940BC8010E94022C80913A01909163
:103620003B0190933D0180933C018FE790E09093A4
:103630003F0180933E0110929E0110929D0183E014
:1036400090E090932B0180932A0188E090E0909382
:10365000AC018093AB019EC48091340190913501FF
:103660000E9494140E94D1137C0106C061E070E0B6
:1036700080E090E00E94BC25809198019091990192
:103680000197A1F3F0929701E092960180913001A9
:10369000909131018E159F053CF0809132019091FF
:1036A0003301E816F90624F490939701809396016C
:1036B00010922901109228018E01055D1F4F609123
:1036C000960170919701C8014AE00E94B82B8FECD7
:1036D0009CE05AC40E94D11397FD06C090938F01BD
:1036E00080938E010E9466118E010E5C1F4F6091C7
:1036F0008E0170918F01C8014AE00E94B82B8AEABE
:103700009CE042C40E94D11397FD06C090939101A2
:10371000809390010E945F118E01075C1F4F6091A2
:10372000900170919101C8014AE00E94B82B85E890
:103730009CE02AC40E94D11325E08D3D920720F41D
:103740009093B2018093B1018E01005C1F4F609194
:10375000B1017091B201C8014AE00E94B82B84E621
:103760009CE012C40E94D1137C0185369105E8F5D6
:10377000B701882777FD8095982F0E94082D20E0BB
:1037800030E048EC52E40E946D2C20E030E042E052
:1037900053E40E94942D20E030E040E251E40E9486
:1037A000092C0E94D52C70934601609345018E012F
:1037B000095B1F4FC801B7014AE00E94B82B8FE395
:1037C0009CE0B8010E94940BC8010E94022C8E015B
:1037D000025B1F4F6091450170914601C8014AE0AC
:1037E0000E94B82B8EE19CE0CFC38E010B5A1F4F75
:1037F000C80162E071E00E94532B8DEE9BE0C4C3D0
:103800000E94D1137C0185E6E816F104E8F5B701C2
:10381000882777FD8095982F0E94082D20E030E0C2
:1038200048EC52E40E946D2C20E030E042E053E48A
:103830000E94942D20E030E040E251E40E94092CE7
:103840000E94D52C70934801609347018E01045A61
:103850001F4FC801B7014AE00E94B82B88EC9BE0DB
:10386000B8010E94940BC8010E94022C8E010D59D0
:103870001F4F6091470170914801C8014AE00E94C2
:10388000B82B87EA9BE080C38E0106591F4FC80101
:1038900062E071E00E94532B86E79BE075C30E94B3
:1038A000D1131816190674F481E0809344018E0137
:1038B0000F581F4FC80162E071E00E94532B82E550
:1038C0009BE062C3109244018E0108581F4FC8014B
:1038D00062E071E00E94532B8CE29BE055C3109292
:1038E0004401E090AF01F090B001C090AD01D090E4
:1038F000AE01F092AE01E092AD010E94D113BC0185
:103900009093B0018093AF018091AD019091AE0191
:10391000681779075CF58E0101581F4FC8014AE00E
:103920000E94B82B8EEE9AE0B8010E94940BC80159
:103930000E94022C8E010A571F4FC80162E071E0FD
:103940000E94532B86EA9AE0B8010E94940BC801AA
:103950000E94022C8091AD019091AE01E80EF91EFB
:10396000EC18FD08F092B001E092AF018E01035710
:103970001F4F6091AF017091B001C8014AE00E94F1
:10398000B82B88E79AE0B8010E94940BC8010E9406
:10399000022C80913A0190913B0190933D018093DC
:1039A0003C018FE790E090933F0180933E0185E0DA
:1039B00090E09093AC018093AB0110929E01109225
:1039C0009D0183E090E090932B0180932A01E2C255
:1039D0000E94D1137C012CEF883192076CF1809109
:1039E0003001909131018E159F0534F18E010C56F6
:1039F0001F4FC801B7014AE00E94B82B8DE49AE03E
:103A0000B8010E94940BC8010E94022CF09295010B
:103A1000E0929401F0929701E0929601F092AE014B
:103A2000E092AD01F092B001E092AF0181E08093AD
:103A30008D010E94C80BAEC28E0105561F4FC801F2
:103A400062E071E00E94532B8EE09AE09DC20E94DA
:103A5000D1130097A9F48E010E551F4FC80162E0E3
:103A600071E00E94532B8FEE99E0B8010E94940BF5
:103A7000C8010E94022C83EC91E068E171E017C05C
:103A8000019709F087C28E0107551F4FC80162E0F8
:103A900071E00E94532B81ED99E0B8010E94940BD4
:103AA000C8010E94022C83EC91E06DE171E00E945C
:103AB000191270C20E94D113BC010097A9F48E01A3
:103AC00000551F4FC80162E071E00E94532B81EB4B
:103AD00099E0B8010E94940BC8010E94022C109238
:103AE0004F0110924E0156C283E0683E7807E4F021
:103AF00070934F0160934E018E0109541F4FC8010E
:103B00004AE00E94B82B8CE899E0B8010E94940B1F
:103B1000C8010E94022C1092EB011092EC0110924D
:103B2000ED011092EE0136C28E0102541F4F6091DA
:103B30004E0170914F01C8014AE00E94B82B8BE6FC
:103B400099E022C28E010B531F4FC80162E071E061
:103B50000E94532B8DE499E0B8010E94940BC80198
:103B60000E94022C81E08093AA011092AC01109275
:103B7000AB01809344010EC28E0104531F4FC80154
:103B800062E071E00E94532B8FE399E0B8010E943C
:103B9000940BC8010E94022C1092AC011092AB0150
:103BA00081E08093440180919B0190919C019093CE
:103BB0009E0180939D0106C061E070E080E090E08E
:103BC0000E94BC2580919801909199010197A1F3E1
:103BD0008091940190919501909397018093960123
:103BE000D9C10E94D1131816190674F481E080938C
:103BF00050018E010D521F4FC80162E071E00E941A
:103C0000532B85E199E0C0C18E0106521F4FC801B8
:103C100062E071E00E94532B89EE98E0B8010E94A7
:103C2000940BC8010E94022C10925001B3C10E9453
:103C3000D11397FD06C090939301809392010E9447
:103C400058118E010F511F4F609192017091930195
:103C5000C8014AE00E94B82B8FEB98E095C10E9402
:103C6000D1137C01B701882777FD8095982F0E949A
:103C7000082D20E030E048EC52E40E946D2C20E05A
:103C800030E048E455E40E94942D20E030E040E02C
:103C900050E00E94092C0E94D52C9B01AC01CB0165
:103CA000E114F10409F510929E0110929D0183E048
:103CB00090E090932B0180932A018FEF90E09093F6
:103CC0003D0180933C018FE790E090933F0180930A
:103CD0003E018E0108511F4FC801B9014AE00E9400
:103CE000B82B86E998E050C164E6E616F10419F5B0
:103CF00080E89CE090939E0180939D0183E090E09A
:103D000090932B0180932A018FEF90E090933D01D7
:103D100080933C018FE790E090933F0180933E01B8
:103D20008E0101511F4FC801B9014AE00E94B82B12
:103D30008FE698E029C137FD2DC1815A9F400CF0D4
:103D400029C130939E0120939D0183E090E09093E0
:103D50002B0180932A018FEF90E090933D01809397
:103D60003C018FE790E090933F0180933E018E01EC
:103D70000A501F4FC801B9014AE00E94B82B86E5DE
:103D800098E002C10E94D1137C0185E6E816F10497
:103D9000E8F5B701882777FD8095982F0E94082DB8
:103DA00020E030E048EC52E40E946D2C20E030E04E
:103DB00040E053E40E94942D20E030E04EEF52E4C6
:103DC0000E94092C0E94D52C709339016093380110
:103DD0008E0103501F4FC801B7014AE00E94B82B63
:103DE00081E398E0B8010E94940BC8010E94022C64
:103DF0008E010C5F1E4F6091380170913901C8012E
:103E00004AE00E94B82B8DE098E0BEC08E01055FAD
:103E10001E4FC80162E071E00E94532B8DED97E0C8
:103E2000B3C00E94D1137C0185369105E8F5B70136
:103E3000882777FD8095982F0E94082D20E030E09C
:103E400048EC52E40E946D2C20E030E040E053E466
:103E50000E94942D20E030E04EEF52E40E94092CA5
:103E60000E94D52C70933B0160933A018E010E5E47
:103E70001E4FC801B7014AE00E94B82B87EB97E0BC
:103E8000B8010E94940BC8010E94022C8E01075EAB
:103E90001E4F60913A0170913B01C8014AE00E94B7
:103EA000B82B82E997E070C08E01005E1E4FC801FA
:103EB00062E071E00E94532B82E697E065C00E94A9
:103EC000D1139C0140912E0150912F011816190613
:103ED000B4F48091940190919501841B950B820F0D
:103EE000931F9093950180939401909397018093F1
:103EF000960130932F0120932E010E946D118E01A7
:103F0000095D1E4F60912E0170912F01C8014AE09A
:103F10000E94B82B80E497E037C00E94D1139C0127
:103F20000A978338910520F43093350120933401AA
:103F300080913401909135010E9494148E01025DAC
:103F40001E4F6091340170913501C8014AE00E9412
:103F5000B82B82E297E018C00E94D11318161906F8
:103F600034F490932D0180932C010E9451118E0105
:103F70000B5C1E4F60912C0170912D01C8014AE02D
:103F80000E94B82B81E097E0B8010E94940BC80111
:103F90000E94022CC55CDE4F0FB6F894DEBF0FBE48
:103FA000CDBFCF91DF911F910F91FF90EF90DF90E8
:103FB000CF900895EF92FF920F931F93CF93DF93CB
:103FC0008C01E62EF42E87E090E00E949A29DC0115
:103FD00011961C921E921496EC9214971296FC92D3
:103FE000129716961C921E921597E8012A813B8122
:103FF000F9018081EEE7FEE0EE0DF11DE4911396EC
:10400000EC931397E82BE901E883E8E6F0E0808180
:10401000E8012C81822B80838A2FDF91CF911F9121
:104020000F91FF90EF9008950F931F93CF93DF931D
:10403000EC0189010E94DA1FDC01009791F0EE810A
:10404000FF81309719F49F838E8309C0CF010580CB
:10405000F681E02D3097D1F7FC01B683A5830D934F
:104060001C93DF91CF911F910F910895582F9B01C1
:10407000E82FF0E0E659F14F84918823E1F06115D3
:104080007105C9F0833039F0843041F0823041F459
:10409000A5E7B1E005C0ADE7B1E002C0A5E8B1E039
:1040A000ED91FC911197808115968C931597CD0118
:1040B000652F0E94142008958CE060E00E94B026D5
:1040C0008CE06BEE79E141E050E00E9436208DE01B
:1040D00061E00E94B02681E160E00E94B02681E1AB
:1040E00061E00E94D62680E160E00E94B02680E177
:1040F00061E00E94D62682E160E00E94B02682E163
:1041000061E00E94D62683E160E00E94B02683E150
:1041100061E00E94D6268FE060E00E94B0268FE02A
:1041200061E00E94D6268EE060E00E94B0268EE01C
:1041300061E00E94D6268EE06BE778E143E050E034
:104140000E9436208EE06CE578E142E050E00E946B
:1041500036208AE060E00E94B0268AE061E00E949A
:10416000D6268AE06AEF78E143E050E00E943620EC
:104170008AE06DED78E142E050E00E9436208BE06D
:1041800060E00E94B0268BE061E00E94D6268BE0C2
:1041900060EC78E143E050E00E9436208BE063EA77
:1041A00078E142E050E00E94362083E061E00E9426
:1041B000B02682E061E00E94B02689E061E00E94C2
:1041C000B02685E061E00E94B02684E061E00E94B4
:1041D000B02688E061E00E94B02687E061E00E949E
:1041E000B02686E061E00E94B02608950E945C201F
:1041F0008BEC92E040E052EC61E070E00E940D2810
:1042000083EC91E040E855E260E070E00E94F82124
:104210000E94AE256093E7017093E8018093E90165
:104220009093EA010E94AE256093E3017093E4014C
:104230008093E5019093E60183E060E070E00E94E6
:10424000502682E060E00E94D62680E099E19093BB
:104250009C0180939B018EE00E942A27892B21F0EC
:1042600010929C0110929B0180919B0190919C0166
:1042700090939E0180939D012091340130913501EE
:10428000442737FD4095542F60EF79E482E090E0B9
:104290000E942C2E84E392E0BA01A9010E943F25DE
:1042A00084E392E06AE876E12FEF3FEF4FEF5FEFB4
:1042B0000E94472580913401909135010E94941409
:1042C00080E090E00E9414140E9483140E949811D0
:1042D0000E94810C109250010E94EF100E94BC0FAE
:1042E0000E947E0F0E94410F0E94BE0E0E94D10DBF
:1042F0000E94780D0E94050C0E94C80B0E94B2100B
:104300000E9475100E94FA0F08950F931F93CF9388
:10431000DF93FC01738D76957170A685B7859585C1
:10432000772329F08C91892309F454C004C08C911F
:10433000892309F04FC08389948920E001972FEFEA
:104340008F3F9207D9F7C589D689A685B785158588
:1043500060E031E040E050E000E0CE01202F019726
:104360002FEF8F3F9207D9F78C91812311F0632BA8
:1043700003C0832F80956823330F4F5F5F4F483012
:10438000510559F78789908D20E001972FEF8F3FD6
:104390009207D9F771116095809131022091320214
:1043A00090E001968F73907030E08217930779F058
:1043B000E0913102F0E0EF50FE4F608380913102D6
:1043C00090E001968F7390708093310203C0838DCB
:1043D0008160838FDF91CF911F910F91089580911C
:1043E000EF019091F001009711F00E94852108954E
:1043F000CF92DF92EF92FF920F931F93CF93DF93B1
:10440000EC017A018B011A8E198E188E1F8A1E8A72
:104410001D8A1C8A1B8A20E030E06901CC0CDD1C5F
:10442000C20ED31EB601660F771F660F771FAB0152
:104430004454524FFA0185919591A591B4918E15EE
:104440009F05A007B107E9F4FB01E054F24F859105
:1044500094919C8B8B8BFB01EE53F24F8591949141
:104460009E8B8D8BFB01EC53F24F85919491988F2D
:104470008F8BFB01EA53F24F859194919A8F898F2C
:1044800006C02F5F3F4F2C30310509F0C6CF8F8912
:10449000988D892B09F449C04C85463108F03DC000
:1044A00090916800483010F484E005C04E3010F060
:1044B00082E001C081E0892B80936800483028F4B5
:1044C000EDE6F0E0ADE6B0E00BC04E3028F0ECE6F3
:1044D000F0E0ACE6B0E004C0EBE6F0E0ABE6B0E064
:1044E0005081483040F481E090E002C0880F991F6D
:1044F0004A95E2F710C0242F30E04E3018F42850CF
:10450000304002C02E50304081E090E002C0880F61
:10451000991F2A95E2F7852B8C93898D9A8D20E03F
:1045200001972FEF8F3F9207D9F78091EF0190917C
:10453000F0018C179D0781F08B8D8E7F8B8F9FB73D
:10454000F894109231028091310280933202D0931C
:10455000F001C093EF019FBFDF91CF911F910F91A9
:10456000FF90EF90DF90CF900895FC014485463195
:1045700080F5483028F4EDE6F0E0ADE6B0E00BC0A1
:104580004E3028F4EBE6F0E0ABE6B0E004C0ECE639
:10459000F0E0ACE6B0E05081483040F481E090E0DB
:1045A00002C0880F991F4A95E2F710C0242F30E00F
:1045B0004E3018F42850304002C02E50304081E078
:1045C00090E002C0880F991F2A95E2F78095852315
:1045D0008C930895FC0185E591E091838083CF0160
:1045E0000E94B52208952091EF013091F001281723
:1045F000390731F49091320280913102981719F401
:104600002FEF3FEF0FC0E0913202F0E0EF50FE4F8E
:1046100020818091320290E001968F739070809398
:10462000320230E0C90108952091EF013091F0018C
:104630002817390719F020E030E00EC080913102D0
:104640002091320290E0805C9F4F821B910960E4D0
:1046500070E00E94F72D9C01C90108950F931F93EC
:10466000DC0159968D919C915A97892B49F481E0F0
:1046700090E013969C938E93129720E030E097C0C1
:104680000FB7F8945B968C915B975196ED91FC91E6
:10469000529750962C91509781FF8DC08081822B2C
:1046A000808359968D919C915A97059620E00197A9
:1046B0002FEF8F3F9207D9F75B968C915B9781FF25
:1046C00035C031E040E050E070E010E0832F90E032
:1046D000862397235196ED91FC91529750962C91F9
:1046E0005097892B29F0808120952823208303C0AF
:1046F0008081822B808359968D919C915A97212F8E
:1047000001972FEF8F3F9207D9F7330F4F5F5F4F1E
:1047100048305105D9F65196ED91FC915297908110
:1047200050968C9150978095892333C031E040E0BA
:1047300050E070E010E0832F90E08623972351969D
:10474000ED91FC91529750962C915097892B21F026
:104750008081822B808304C0808120952823208340
:1047600059968D919C915A97212F01972FEF8F3F4A
:104770009207D9F7330F4F5F5F4F48305105D9F695
:104780005196ED91FC915297808150969C91509753
:10479000892B80830FBF59968D919C915A9720E069
:1047A00001972FEF8F3F9207D9F721E030E0C90141
:1047B0001F910F910895808120952823208371CF28
:1047C0002091EF013091F0012817390749F49FB784
:1047D000F8941092310280913102809332029FBF8F
:1047E00008952091EF013091F0012817390731F435
:1047F0009091320280913102981719F42FEF3FEF18
:104800000AC0E0913202F0E0EF50FE4F8081282F85
:10481000332727FD3095C90108951F93CF93DF9368
:10482000EC01162F862F60E00E94B0268B8D81FD53
:1048300004C0812F61E00E94D6261C87212F30E022
:10484000C9018258914FFC0184918D872659314FBF
:10485000F9016491E62FF0E0EE0FFF1FE05AF14FEF
:10486000859194919F878E87DF91CF911F910895B5
:10487000FF920F931F938C01F62E862F61E00E940A
:10488000B0268F2D61E00E94D6268F2D90E0FC018E
:10489000E258F14FE491D8015096EC935097865925
:1048A000914FFC016491E62FF0E0EE0FFF1FEA5AF2
:1048B000F14F8591949152969C938E9351971F91AD
:1048C0000F91FF900895FF920F931F938C01F62E86
:1048D000FC011382128288EE93E0A0E0B0E08483B2
:1048E0009583A683B78385E591E091838083148ABD
:1048F000138A168A158A108E178A128E118E838D4E
:104900002170220F8C7F822B838FC801642F0E941D
:104910003824C8016F2D0E940D241F910F91FF9024
:104920000895F999FECF72BD61BDF89A80B50895DA
:10493000F999FECF1FBA72BD61BD40BD0FB6F894A4
:10494000FA9AF99A0FBE08951F920F920FB60F921E
:1049500011242F933F934F935F936F937F938F9384
:104960009F93AF93BF93EF93FF93E0913802F09141
:1049700039020995FF91EF91BF91AF919F918F916E
:104980007F916F915F914F913F912F910F900FBE4B
:104990000F901F901895FC01A3E0440F551F661F50
:1049A000771FAA95D1F7403080E0580781E068076B
:1049B00080E0780714F481E010C033E075956795C6
:1049C000579547953A95D1F7403080E0580781E0F8
:1049D000680780E078071CF482E0828339C023E016
:1049E00075956795579547952A95D1F7403080E0A2
:1049F000580781E0680780E0780714F483E0EDCF82
:104A000092E075956795579547959A95D1F74030FF
:104A100080E0580781E0680780E0780714F484E0BC
:104A2000DCCF82E075956795579547958A95D1F7C4
:104A3000403080E0580781E0680780E0780714F490
:104A400085E0CBCF85E082834FEF5FEF60E070E0E1
:104A50008FB78383F89451834083509387004093AA
:104A6000860083818FBF80918100887F8093810041
:104A7000809181009281892B80938100089510920A
:104A8000800020E1209381000E94CB2408950F93A1
:104A90001F93CF93DF93EC018B01121613061406BC
:104AA000150624F4BA01A9010E94CB241D830C83AE
:104AB00081E080936F00809181009A81892B80939F
:104AC0008100DF91CF911F910F9108951F920F9256
:104AD0000FB60F9211242F933F938F939F93AF9311
:104AE000BF9380913E0290913F02A0914002B0910D
:104AF0004102309142020196A11DB11D232F2D5F6D
:104B00002D3720F02D570196A11DB11D2093420293
:104B100080933E0290933F02A0934002B0934102E3
:104B200080913A0290913B02A0913C02B0913D02EB
:104B30000196A11DB11D80933A0290933B02A09370
:104B40003C02B0933D02BF91AF919F918F913F91F5
:104B50002F910F900FBE0F901F9018958FB7F8945C
:104B600020913E0230913F0240914002509141021B
:104B70008FBFB901CA0108959B01AC017FB7F894BA
:104B800080913A0290913B02A0913C02B0913D028B
:104B900066B5A89B05C06F3F19F00196A11DB11D18
:104BA0007FBFBA2FA92F982F8827860F911DA11D8F
:104BB000B11D62E0880F991FAA1FBB1F6A95D1F72C
:104BC000BC012DC0FFB7F89480913A0290913B024E
:104BD000A0913C02B0913D02E6B5A89B05C0EF3F15
:104BE00019F00196A11DB11DFFBFBA2FA92F982F53
:104BF00088278E0F911DA11DB11DE2E0880F991F1E
:104C0000AA1FBB1FEA95D1F7861B970B885E9340BE
:104C1000C8F2215030404040504068517C4F21152F
:104C200031054105510571F60895789484B5826087
:104C300084BD84B5816084BD85B5826085BD85B540
:104C4000816085BDEEE6F0E0808181608083E1E8EF
:104C5000F0E0108280818260808380818160808327
:104C6000E0E8F0E0808181608083E1EBF0E080812A
:104C700084608083E0EBF0E0808181608083EAE7FC
:104C8000F0E0808184608083808182608083808185
:104C9000816080838081806880831092C100089544
:104CA0001F93CF93DF93182FEB0161E00E94B02692
:104CB000209709F44AC0CF3FD10509F449C0E12F3C
:104CC000F0E0EE56F14F84918330C1F0843028F447
:104CD000813051F08230B1F50CC0863019F1873047
:104CE00049F1843079F514C084B5806884BDC7BDAE
:104CF00033C084B5806284BDC8BD2EC08091800061
:104D0000806880938000D0938900C093880024C07D
:104D100080918000806280938000D0938B00C0934C
:104D20008A001AC08091B00080688093B000C09360
:104D3000B30012C08091B00080628093B000C09335
:104D4000B4000AC0C038D1051CF4812F60E002C055
:104D5000812F61E00E94D626DF91CF911F910895A7
:104D6000482F50E0CA018258914FFC0124914659C6
:104D7000514FFA0184918823C1F0E82FF0E0EE0F43
:104D8000FF1FE45BF14FA591B491662341F49FB7F7
:104D9000F8948C91209582238C939FBF08959FB7A0
:104DA000F8948C91822B8C939FBF0895482F50E0EC
:104DB000CA018E56914FFC012491CA018258914F2D
:104DC000FC0194914659514FFA013491332309F46F
:104DD00040C0222351F1233071F0243028F42130D7
:104DE000A1F0223011F514C02630B1F02730C1F007
:104DF0002430D9F404C0809180008F7703C0809163
:104E000080008F7D8093800010C084B58F7702C0B2
:104E100084B58F7D84BD09C08091B0008F7703C0B9
:104E20008091B0008F7D8093B000E32FF0E0EE0F13
:104E3000FF1FEA5AF14FA591B4912FB7F89466235A
:104E400021F48C919095892302C08C91892B8C93AD
:104E50002FBF0895682F70E0CB018E56914FFC0153
:104E60002491CB018258914FFC0144916659714FB6
:104E7000FB019491992319F420E030E03CC02223F7
:104E800051F1233071F0243028F42130A1F0223088
:104E900011F514C02630B1F02730C1F02430D9F418
:104EA00004C0809180008F7703C0809180008F7D47
:104EB0008093800010C084B58F7702C084B58F7D49
:104EC00084BD09C08091B0008F7703C08091B0008D
:104ED0008F7D8093B000892F90E0880F991F805AB2
:104EE000914FFC01A591B4918C9120E030E0842396
:104EF00011F021E030E0C90108951F920F920FB622
:104F00000F9211242F933F934F938F939F93EF937F
:104F1000FF934091C60020918302309184022F5F5D
:104F20003F4F2F7330708091850290918602281731
:104F3000390759F0E0918302F0918402ED5BFD4F57
:104F400040833093840220938302FF91EF919F91DD
:104F50008F914F913F912F910F900FBE0F901F9007
:104F60001895E091D702F091D802E05CFF4F819153
:104F7000919120813181821B930B8F739070892BCB
:104F800011F00E94F21908951F920F920FB60F921E
:104F900011242F933F934F935F936F937F938F933E
:104FA0009F93AF93BF93EF93FF932091C7023091EC
:104FB000C8028091C9029091CA022817390731F4BA
:104FC0008091C1008F7D8093C10016C0E091C9021D
:104FD000F091CA02E957FD4F40818091C90290913A
:104FE000CA02019660E470E00E94F72D9093CA0215
:104FF0008093C9024093C600FF91EF91BF91AF919A
:105000009F918F917F916F915F914F913F912F91E0
:105010000F900FBE0F901F901895AF92BF92DF9226
:10502000EF92FF920F931F93CF93DF93EC017A01DE
:105030008B01DD24403081EE580780E0680780E076
:10504000780711F0DD24D39491E0A92EB12CEC89DE
:10505000FD89DD2069F0C5010E8C02C0880F991F03
:105060000A94E2F7808360E079E08DE390E005C088
:10507000108260E874E88EE190E0A80197010E9438
:105080000A2E215030404040504056954795379564
:10509000279580E12030380720F0DD2011F0DD2455
:1050A000D6CFE889F9893083EA89FB892083EE89A4
:1050B000FF89408121E030E0C9010A8C02C0880FDD
:1050C000991F0A94E2F7482B4083EE89FF894081BB
:1050D000C9010B8C02C0880F991F0A94E2F7482B74
:1050E0004083EE89FF894081C9010C8C02C0880F82
:1050F000991F0A94E2F7482B4083EE89FF8980814B
:105100000D8C02C0220F331F0A94E2F7209528234A
:105110002083DF91CF911F910F91FF90EF90DF904F
:10512000BF90AF900895DC011C96ED91FC911D9706
:10513000E05CFF4F2191319180819181281B390BD7
:105140002F733070C9010895DC011C96ED91FC911C
:105150001D97E05CFF4F20813181E054F040DF017A
:10516000AE5BBF4F8D919C9111972817390719F4A9
:105170002FEF3FEF07C08D919C91E80FF91F8081C1
:10518000282F30E0C9010895DC011C96ED91FC91B7
:105190001D97E05CFF4F20813181E054F040DF013A
:1051A000AE5BBF4F8D919C9111972817390719F469
:1051B0002FEF3FEF10C08D919C911197E80FF91FD1
:1051C00020818D919C91119701968F73907011960B
:1051D0009C938E9330E0C9010895FC0186859785E4
:1051E000DC01A05CBF4FFC01EE5BFF4F2D913C91B9
:1051F00011978081918128173907C1F70895CF93BE
:10520000DF93EC01462FEE85FF85E05CFF4F808148
:105210009181E054F040019660E470E00E94F72D27
:105220009C01DF01AE5BBF4F8D919C9111972817B8
:105230003907D1F3E05CFF4F80819181E054F04069
:10524000E80FF91F4083EE85FF85E05CFF4F318357
:105250002083EE89FF89208181E090E00D8C02C0DF
:10526000880F991F0A94E2F7282B208381E090E0B1
:10527000DF91CF9108951092CE021092CD0288EE68
:1052800093E0A0E0B0E08093CF029093D002A0938F
:10529000D102B093D20285E691E09093CC02809344
:1052A000CB0283E492E09093D8028093D70287E800
:1052B00092E09093DA028093D90285EC90E090938B
:1052C000DC028093DB0284EC90E09093DE0280931A
:1052D000DD0280EC90E09093E0028093DF0281ECAD
:1052E00090E09093E2028093E10286EC90E090934C
:1052F000E4028093E30284E08093E50283E08093FC
:10530000E60287E08093E70285E08093E80281E08F
:105310008093E9020895CF93DF930E9415260E949F
:10532000F620C1EBD7E20E9417192097E1F30E9403
:10533000B127F9CF0E9480070895CF92DF92EF92B4
:10534000FF920F931F93CF93DF937C016B018A0130
:10535000C0E0D0E00FC0D6016D916D01D701ED9195
:10536000FC910190F081E02DC7010995C80FD91F6C
:10537000015010400115110571F7CE01DF91CF9159
:105380001F910F91FF90EF90DF90CF900895EF92D3
:10539000FF920F931F93CF93DF937C018B01C0E0AB
:1053A000D0E0F8010F5F1F4F6491662359F0D701D9
:1053B000ED91FC910190F081E02DC7010995C80F96
:1053C000D91FEFCFCE01DF91CF911F910F91FF90A9
:1053D000EF900895EF92FF920F931F938C01DC01E1
:1053E000ED91FC910190F081E02D6DE009957C013B
:1053F000D801ED91FC910190F081E02DC8016AE0A7
:1054000009959C012E0D3F1DC9011F910F91FF9021
:10541000EF9008950E9419120895AF92BF92CF9213
:10542000DF92EF92FF920F931F93CF93DF935C0174
:105430006B01EE24FF24C0E0D0E010C0D501ED9157
:10544000FC9100811181C601BE010E94542A682F7F
:10545000C501F8010995E80EF91E2196F60184812F
:105460009581C817D90750F3C701DF91CF911F91DC
:105470000F91FF90EF90DF90CF90BF90AF90089585
:10548000EF92FF920F931F937C010E940D2A8C01D3
:10549000C7010E94EA299C01200F311FC9011F91F9
:1054A0000F91FF90EF900895FC018481958168171A
:1054B000790748F40190F081E02D309721F0E60F54
:1054C000F71F8081089580E008950F931F93CF9375
:1054D000DF93FC018B0141155105F9F06115710550
:1054E000E1F0848195812817390718F0FB011082BB
:1054F00014C041505040EC01C21BD30B4C175D0748
:1055000008F4EA0160817181620F731FC801AE0166
:105510000E948E09C00FD11F1882DF91CF911F9179
:105520000F910895DC01FB0114968D919C911597C4
:10553000892B31F461157105A9F090E0808108C0D4
:105540000D90BC91A02D6115710529F490E08C910E
:10555000882349F407C0CD010E947E099C0190E098
:10556000232B09F491E0892F08950F931F93CF9374
:10557000DF93EC018B016F5F7F4F888199810E94DF
:105580008208009711F480E005C0998388831B830B
:105590000A8381E0DF91CF911F910F910895CF93FE
:1055A000DF93EC0188819981892B29F08A819B8185
:1055B0008617970760F4CE010E94B52A882341F030
:1055C0008C819D81892B19F4E881F981108281E019
:1055D000DF91CF910895EF92FF920F931F93CF9396
:1055E000DF93EC017B016C817D81E114F104C1F05A
:1055F0004115510599F08A01060F171FB8010E9445
:10560000CF2A882369F0888199812C813D81820F7E
:10561000931FB7010E9487091D830C8381E001C09D
:1056200080E0DF91CF911F910F91FF90EF9008954F
:10563000FB0160817181448155810E94EB2A0895AC
:10564000CF93DF93EC0188819981009711F00E943C
:105650002A08198218821D821C821B821A82DF91FD
:10566000CF910895EF92FF920F931F93CF93DF9303
:10567000EC017B018A01BA010E94CF2A882321F420
:10568000CE010E94202B07C01D830C838881998145
:10569000B7010E948709CE01DF91CF911F910F9131
:1056A000FF90EF900895CF93DF93EC011982188259
:1056B0001B821A821D821C821E826115710551F0A7
:1056C000DB010D900020E9F71197A61BB70BAD0188
:1056D0000E94322BDF91CF9108950F931F93182FC3
:1056E000092F6115710559F0DB010D900020E9F7D4
:1056F0001197A61BB70BAD010E94322B02C00E946E
:10570000202B812F902F1F910F910895EF92FF92E0
:105710000F931F93DF93CF93CDB7DEB7A1970FB64B
:10572000F894DEBF0FBECDBF8C01FC011182108248
:1057300013821282158214821682CB01BA017E0175
:105740000894E11CF11CA70130E00E94C609C801C1
:10575000B7010E946D2BA1960FB6F894DEBF0FBE65
:10576000CDBFCF91DF911F910F91FF90EF900895E2
:10577000EF92FF920F931F93DF93CF93CDB7DEB7D6
:1057800062970FB6F894DEBF0FBECDBF8C01CB0180
:10579000F8011182108213821282158214821682FD
:1057A0007E010894E11CF11CB70150E00E949D09A4
:1057B000C801B7010E946D2B62960FB6F894DEBF48
:1057C0000FBECDBFCF91DF911F910F91FF90EF9052
:1057D0000895DF93CF9300D0CDB7DEB7FC011182DF
:1057E00010821382128215821482168269831A82B1
:1057F000BE016F5F7F4F0E946D2B0F900F90CF9176
:10580000DF910895FC01808191810E942A0808950A
:105810005058BB27AA270ED04DC13ED130F043D1FE
:1058200020F031F49F3F11F41EF433C10EF4E095E3
:10583000E7FB29C1E92F4FD180F3BA17620773073D
:105840008407950718F071F49EF567C10EF4E09592
:105850000B2EBA2FA02D0B01B90190010C01CA012A
:10586000A0011124FF27591B99F0593F50F4503ED5
:1058700068F11A16F040A22F232F342F4427585FC7
:10588000F3CF469537952795A795F0405395C9F7DF
:105890007EF41F16BA0B620B730B840BBAF0915097
:1058A000A1F0FF0FBB1F661F771F881FC2F70EC036
:1058B000BA0F621F731F841F48F487957795679509
:1058C000B795F7959E3F08F0B3CF9395880F08F0F2
:1058D0009927EE0F9795879508950CD0EBC0E3D0EC
:1058E00040F0DAD030F021F45F3F19F0CCC0511114
:1058F00015C1CFC0F0D098F39923C9F35523B1F364
:10590000951B550BBB27AA2762177307840738F02E
:105910009F5F5F4F220F331F441FAA1FA9F333D08D
:105920000E2E3AF0E0E830D091505040E695001C41
:10593000CAF729D0FE2F27D0660F771F881FBB1FFD
:10594000261737074807AB07B0E809F0BB0B802DD7
:10595000BF01FF2793585F4F2AF09E3F510568F023
:1059600092C0DCC05F3FECF3983EDCF38695779500
:105970006795B795F7959F5FC9F7880F911D969525
:10598000879597F90895E1E0660F771F881FBB1F81
:10599000621773078407BA0720F0621B730B840B2E
:1059A000BA0BEE1F88F7E095089504D06894B11102
:1059B000B5C0089598D088F09F5790F0B92F9927D7
:1059C000B751A0F0D1F0660F771F881F991F1AF00A
:1059D000BA95C9F712C0B13081F09FD0B1E00895F7
:1059E0009CC0672F782F8827B85F39F0B93FCCF378
:1059F000869577956795B395D9F73EF49095809500
:105A0000709561957F4F8F4F9F4F0895E89409C01F
:105A100097FB3EF490958095709561957F4F8F4FE1
:105A20009F4F9923A9F0F92F96E9BB279395F695F7
:105A3000879577956795B795F111F8CFFAF4BB0F75
:105A400011F460FF1BC06F5F7F4F8F4F9F4F16C0D9
:105A5000882311F096E911C0772321F09EE8872F63
:105A6000762F05C0662371F096E8862F70E060E01F
:105A70002AF09A95660F771F881FDAF7880F969598
:105A8000879597F9089597F99F6780E870E060E03F
:105A900008959FEF80EC089500240A9416161706C7
:105AA00018060906089500240A941216130614060F
:105AB00005060895092E0394000C11F4882352F072
:105AC000BB0F40F4BF2B11F460FF04C06F5F7F4F2A
:105AD0008F4F9F4F089557FD9058440F551F59F011
