:100000000C94D2070C94FA070C94FA070C94DC0AAF
:100010000C94090B0C94360B0C94FA070C94FA0709
:100020000C94FA070C94FA070C94FA070C94FA074C
:100030000C94FA070C9426280C94FA070C94FA07EF
:100040000C94E8280C94FA070C94FF2A0C94462B85
:100050000C94FA070C94FA070C94FA070C94FA071C
:100060000C94FA070C94FA072E234C234C234C23B0
:100070004C234C234C234C234C234C234C234C2308
:100080004C234C234C234C234C234C234C234C23F8
:100090004C234C234C234C234C234C234C234C23E8
:1000A0004C23CF1CFA1C351D4A1D6E1D921DD11DFF
:1000B0000F1E271E3F1E571EA51EF41E141F8D1F48
:1000C000CC1FC4200C213E2173219921B12144224F
:1000D0009322E1220F234C234C234C234C234C230B
:1000E0004C23CF1CFA1C351D4A1D6E1D921DD11DBF
:1000F0000F1E271E3F1E571EA51EF41E141F8D1F08
:10010000CC1FC4200C213E2173219921B12144220E
:100110009322E1220F2343757272656E74205A2078
:10012000506F736974696F6E2069733A20005A00CA
:1001300043757272656E74205A20486F6D65205643
:10014000616C75653A005900526573657420436FA0
:100150006D70656C6574652077697468205A2044F9
:10016000696666206F663A005800466F72207570A7
:10017000646174657320616E6420746F20646F77AE
:100180006E6C6F616420746865206C617374657354
:10019000742076657273696F6E2C2076697369744A
:1001A00020687474703A2F2F623963726561746FBE
:1001B000722E636F6D00546F207669657720612021
:1001C000636F7079206F662074686973206C69634F
:1001D000656E73652C207669736974206874747019
:1001E0003A2F2F6372656174697665636F6D6D6F09
:1001F0006E732E6F72672F6C6963656E7365732FF4
:1002000062792D73612F332E302F0054686973206B
:10021000776F726B206973206C6963656E736564B8
:1002200020756E6465722074686520437265617420
:1002300069766520436F6D6D6F6E732041747472C3
:1002400069627574696F6E2D5368617265416C697E
:100250006B6520332E3020556E706F72746564208C
:100260004C6963656E73652E004239437265617433
:10027000696F6E7328746D2920616E642042394362
:10028000726561746F7228746D29206172652074C3
:10029000726164656D61726B73206F6620423943D1
:1002A00072656174696F6E732C204C4C4300436F10
:1002B0007079726967687420323031322042394374
:1002C00072656174696F6E732C204C4C4300423927
:1002D00043726561746F7228746D29204669726D6E
:1002E000776172652076657273696F6E20312E308A
:1002F0002E392072756E6E696E67206F6E206120D8
:10030000423943726561746F72204D6F64656C2071
:1003100031005742394331005631203020390045F1
:1003200052524F523A202052756E617761792058AF
:10033000204D7472207768696C6520436C6F736917
:100340006E672E20204552524F5220434F44453A6B
:1003500020004552524F523A202052756E6177610B
:10036000792058204D7472207768696C65204F7031
:10037000656E696E672E20204552524F5220434FC2
:1003800044453A20004552524F523A2020556E6B58
:100390006E6F776E20486172647761726520466186
:1003A000756C742120204552524F5220434F4445D2
:1003B0003A2000550043757272656E7420536C6963
:1003C00064652050657263656E74204F70656E20A1
:1003D00069733A200053004E65656473205265735B
:1003E00065743A20594553005231004E6565647377
:1003F0002052657365743A204E4F0052300050729F
:10040000696E74204379636C652041424F52542ECB
:100410002020486F737420434F4D4D204C6F7374F0
:1004200000510050726F6A6563746F7220697320A7
:100430004F6E0050310050726F6A6563746F7220A6
:100440006973204F6666005030004D6178696D75A4
:100450006D205A20696E2050553A20004D004C61A5
:100460006D7020486F7572733A20004C00457374AC
:10047000696D6174656420686F757273206265666A
:100480006F7265206C616D70206F7574707574206B
:10049000697320312F32206F66206F726967696E31
:1004A000616C2076616C75653A20004B005368756D
:1004B0007474657220436F6E74726F6C3A2041766B
:1004C00061696C61626C65004A31005072696E74DA
:1004D000657220556E69743A2036333500493633DB
:1004E000350043616C6962726174656420585920FB
:1004F000506978656C2053697A6520696E204D6972
:1005000063726F6E733A200048004379636C652014
:1005100046696E69736865642E00460050726F6AA2
:100520006563746F722773204E6174697665205914
:10053000205265736F6C7574696F6E3A20004500C8
:1005400050726F6A6563746F722773204E617469AD
:1005500076652058205265736F6C7574696F6E3ABA
:100560002000440050726F6A6563746F7220436F9D
:100570006E74726F6C3A2020417661696C61626CB6
:100580006500413100446966666572656E63652089
:100590006F663A2020005265736574205A65726F49
:1005A00020746F3A202000466F756E64205A657281
:1005B0006F2061743A20200052616973696E672070
:1005C000506C6174666F726D20746F2066696E6125
:1005D0006C20706F736974696F6E2E0052656C6564
:1005E000617365640042726561746865205061756D
:1005F00073652046696E69736865642E20204F70AC
:10060000656E696E6720536875747465722E00524A
:1006100061697365642E202050617573696E67206F
:10062000666F7220627265617468652E2E2E0052AC
:10063000616973696E6720506C6174666F726D20BA
:10064000746F206E657874206C6179657220706FAC
:10065000736974696F6E202B20636C656172616EC3
:100660006365204761702E0052656C656173656437
:100670002C205368757474657220436C6F736564C5
:1006800000536574746C652050617573652046690C
:100690006E69736865642E202052656164792074E8
:1006A0006F204578706F73652E004C6F77657265AB
:1006B000642E202050617573696E6720666F72200A
:1006C000736574746C652E2E2E004C6F776572699D
:1006D0006E6720506C6174666F726D20746F206E4F
:1006E000657874206C6179657220706F73697469C4
:1006F0006F6E2E0053687574746572204F70656E4E
:1007000000436F6D6D616E643A204C616D702048DE
:10071000616C66204C6966652053657420746F3A7D
:10072000200043757272656E74207A204472697677
:10073000652053706565642073657420746F2000B4
:10074000436F6D6D616E643A205A20486F6D65206D
:100750005265666572656E63652053657420546FDB
:100760002000436F6D6D616E643A204572726F7246
:100770002C2050657263656E74204F70656E205337
:1007800070656564204F7574206F662052616E67D6
:100790006500436F6D6D616E643A204163747561ED
:1007A0006C20436C6F7365205370656564205365DE
:1007B0007420546F3A2000436F6D6D616E643A206F
:1007C00050657263656E7420436C6F73652053705F
:1007D0006565642053657420546F3A2000436F6D43
:1007E0006D616E643A204572726F722C2050657292
:1007F00063656E74204F70656E205370656564206C
:100800004F7574206F662052616E676500436F6D8F
:100810006D616E643A2041637475616C204F706540
:100820006E2053706565642053657420546F3A20C0
:1008300000436F6D6D616E643A2050657263656E42
:1008400074204F70656E2053706565642053657425
:1008500020546F3A2000436F6D6D616E643A204DF5
:100860006F76696E672056415420746F3A200043BA
:100870006F6D6D616E643A204D6F76696E672056BC
:10088000415420746F204F70656E20506F736974EF
:10089000696F6E3A2000436F6D6D616E643A204D52
:1008A0006F76696E672056415420746F20436C6FD9
:1008B00073656420506F736974696F6E3A200043EA
:1008C0006F6D6D616E643A2043616C696272617430
:1008D000656420585920506978656C2053697A65A1
:1008E0002053657420546F2000436F6D6D616E64FA
:1008F0003A20566572626F736520546578742043A0
:100900006F6D6D656E7473204465616374697661A3
:100910007465642E00436F6D6D616E643A20566598
:1009200072626F7365205465787420436F6D6D65D6
:100930006E7473204163746976617465642E00433C
:100940006F6D6D616E643A2053544F5000436F6D6C
:100950006D616E643A20526573657420486F6D65F1
:1009600020506F736974696F6E7300436F6D6D61B2
:100970006E643A20526573657420466163746F72C9
:10098000792044656661756C747300436F6D6D61A9
:100990006E643A2042726F61646361737420496EC1
:1009A00074657276616C2069733A2000436F6D6DD7
:1009B000616E643A2042726F6164636173742049AE
:1009C0006E74657276616C2073657420746F3A2062
:1009D00000436F6D6D616E643A205475726E696E7E
:1009E000672042726F61646361737473204F46467F
:1009F00000436F6D6D616E643A2050726F6A65637B
:100A0000746F7220466163746F72792052657365EA
:100A10007400436F6D6D616E643A205365742050AD
:100A2000726F6A656374696F6E204D6F64653A20FA
:100A300052656172202B204365696C696E670043C3
:100A40006F6D6D616E643A205365742050726F6AE9
:100A5000656374696F6E204D6F64653A2043656904
:100A60006C696E6700436F6D6D616E643A2053650B
:100A7000742050726F6A656374696F6E204D6F6485
:100A8000653A205265617200436F6D6D616E643A24
:100A9000205365742050726F6A656374696F6E20AD
:100AA0004D6F64653A2046726F6E7400436F6D6DD2
:100AB000616E643A205265736574696E6720507286
:100AC0006F6A6563746F7200436F6D6D616E643A37
:100AD000205475726E696E672050726F6A65637418
:100AE0006F72204F4E00436F6D6D616E643A2054FB
:100AF00075726E696E672050726F6A6563746F728B
:100B0000204F4646004572726F723A2052657365F7
:100B1000742063757272656E74205A20706F7369E9
:100B200074696F6E2076616C7565206F7574206FC7
:100B300066206C696D6974732E202049676E6F7230
:100B400065642E00436F6D6D616E643A205265736B
:100B5000657474696E672063757272656E74205A6D
:100B600020706F736974696F6E20746F3A20004350
:100B70006F6D6D616E643A2052656C6561736520BE
:100B8000616E64206379636C6520746F204E6578B4
:100B900074204C617965722061743A20004E4F5484
:100BA000453A20205265736574204E657874204361
:100BB00075726520506F736974696F6E20746F2051
:100BC0006C617374206375726520706F73697469EA
:100BD0006F6E202B206C61737420696E6372656D7B
:100BE000656E742E004552524F523A2020496E765F
:100BF000616C696420436F6D6D616E643A2052656B
:100C00006C6561736520616E64206379636C652037
:100C1000746F204E657874204C6179657220617420
:100C20003A2000436F6D6D616E643A204D616E75C0
:100C3000616C20436F6E74726F6C732044656163E6
:100C4000746976617465642E00436F6D6D616E64C6
:100C50003A204D616E75616C20436F6E74726F6CDB
:100C600073204163746976617465642E00436F6D0F
:100C70006D616E643A204572726F722C20506572FD
:100C800063656E74204C6F77657220537065656480
:100C9000204F7574206F662052616E676500436F48
:100CA0006D6D616E643A2052504D204C6F776572C5
:100CB0002053706565642053657420546F20004391
:100CC0006F6D6D616E643A2050657263656E74205D
:100CD0004C6F77657220537065656420536574208E
:100CE000546F2000436F6D6D616E643A20457272DF
:100CF0006F722C2050657263656E74205261697347
:100D000065205370656564204F7574206F662052AE
:100D1000616E676500436F6D6D616E643A2052507D
:100D20004D20526169736520537065656420536579
:100D30007420546F2000436F6D6D616E643A2050D3
:100D4000657263656E7420526169736520537065C6
:100D500065642053657420546F2000436F6D6D618E
:100D60006E643A205265706F736974696F6E2047C4
:100D700061702073657420746F3A2000436F6D6D4D
:100D8000616E643A204E617469766520592052651F
:100D9000736F6C7574696F6E2053657420546F2087
:100DA00000436F6D6D616E643A204E6174697665C3
:100DB0002058205265736F6C7574696F6E2053658F
:100DC0007420546F2000436F6D6D616E643A20474C
:100DD0006F746F205A20706F736974696F6E206131
:100DE000743A2000436F6D6D616E643A2052656CF9
:100DF0006561736520616E64206D6F766520746F28
:100E00002066696E616C20706F736974696F6E2003
:100E100061743A2000436F6D6D616E643A205365D2
:100E200074746C652044656C6179207365742074FA
:100E30006F2000436F6D6D616E643A204272656190
:100E40007468652044656C61792073657420746FE3
:100E50002000436F6D6D616E643A2020526571759C
:100E60006573742043757272656E74205374617477
:100E7000757300436F6D6D616E643A204379636CE6
:100E80006520746F20696E697469616C20426173BA
:100E900065204C617965722061743A2000436F6D62
:100EA0006D616E643A202041636B6E6F776C656490
:100EB00067650000C201000100110011000C000074
:100EC000E100000A0025002500210000960000191D
:100ED00000390039003600127A00001F0046004633
:100EE0000044008070000022004D004D004A0000C8
:100EF0004B00003600750075007200403800004A53
:100F0000009C009C009900802500007200EC00EC21
:100F100000E900C0120000E900DA01DA01D701603F
:100F2000090000D701B603B603B303B0040000B351
:100F3000036E076E076B072C010000DC0EC11DC19C
:100F40001DBE1D00000000240027002A0000000034
:100F500000250028002B00000000002300260029A7
:100F60000004040404040404040202020202020352
:100F7000030303030301020408102040800102045C
:100F800008102001020408102000000007000201E0
:100F900000000304060000000000000000001D0C1B
:100FA000BD2C160C11241FBECFEFD8E0DEBFCDBF85
:100FB00011E0A0E0B1E0EEE4F4E602C005900D928D
:100FC000AC3CB107D9F713E0ACECB1E001C01D9225
:100FD000A335B107E1F71FE0C2EADFE004C02297C2
:100FE000FE010E94DF31CE39D107C9F70E940D2DD5
:100FF0000C941A320C940000CF93DF93BC01823022
:10100000910510F462E070E0A0915103B091520399
:10101000ED01E0E0F0E040E050E021C088819981FE
:101020008617970769F48A819B81309719F093831B
:10103000828304C09093520380935103FE0134C015
:101040006817790738F44115510519F08417950789
:1010500008F4AC01FE018A819B819C01E901209783
:10106000E9F641155105A9F1CA01861B970B0497B2
:1010700008F4BA01E0E0F0E02AC08D919C9111974C
:1010800084179507F9F46417750781F412968D910A
:101090009C911397309719F09383828304C09093A7
:1010A000520380935103FD0132964CC0CA01861B46
:1010B000970BFD01E80FF91F6193719302978D93D0
:1010C0009C9340C0FD01828193819C01D9011097BE
:1010D000A1F680914F0390915003892B41F48091A8
:1010E0007A0190917B019093500380934F0340913C
:1010F0007C0150917D014115510541F44DB75EB71A
:101100008091780190917901481B590B20914F03F0
:1011100030915003CA01821B930B8617970780F00A
:10112000AB014E5F5F4F8417950750F0420F531F7E
:101130005093500340934F03F9016193719302C0A0
:10114000E0E0F0E0CF01DF91CF910895CF93DF93FE
:10115000009709F450C0EC0122971B821A82A091DB
:101160005103B0915203109709F140E050E0AC17E1
:10117000BD0708F1BB83AA83FE0121913191E20FE3
:10118000F31FAE17BF0779F48D919C911197280F2B
:10119000391F2E5F3F4F3983288312968D919C9182
:1011A00013979B838A834115510571F4D0935203A1
:1011B000C093510320C012968D919C911397AD015D
:1011C000009711F0DC01D3CFFA01D383C2832191C0
:1011D0003191E20FF31FCE17DF0769F488819981FF
:1011E000280F391F2E5F3F4FFA01318320838A81F8
:1011F0009B8193838283DF91CF910895A0E0B0E03B
:10120000E4E0F9E00C94E5316C01009729F4CB019E
:101210000E94FC076C01C1C08EEF882E8FEF982EC4
:101220008C0C9D1C8601060F171F0815190508F464
:10123000B2C0F401A081B181A617B707B8F0A530FC
:10124000B10508F4AAC0CD0104978617970708F4E2
:10125000A4C01297A61BB70BF801A193B193D401B8
:101260006D937C93CF010E94A60897C07B01EA1A78
:10127000FB0AEEEFFFEFEE0EFF1E36016A0E7B1E3D
:10128000C0915103D091520344245524AA24BB2475
:101290004AC0C615D705E1F5488159814E155F054D
:1012A000B8F1CA0104978E159F05B0F41296A40FE9
:1012B000B51FF401B183A0832A813B8141145104FD
:1012C00031F0D20113963C932E93129766C030935F
:1012D00052032093510361C08A819B81F80193835B
:1012E0008283425050404E195F095183408341141C
:1012F000510431F0D20113961C930E93129704C03F
:101300001093520300935103F4017183608345C02D
:1013100088819981A816B90608F45C012E018A819A
:101320009B819C01E901209709F0B3CF80914F0385
:101330009091500386159705E9F4A616B706D0F4E8
:1013400020917C0130917D012115310541F42DB7AB
:101350003EB78091780190917901281B390B0217D3
:101360001307C8F41093500300934F03D4016D93F7
:101370007C9313C0CB010E94FC07EC01009759F04D
:10138000F40140815181B6010E94F109C6010E9419
:10139000A6086E0102C0CC24DD24C601CDB7DEB79D
:1013A000E0E10C940132FC0188279927E89421910F
:1013B0002032E9F3293010F02E30C8F32B3241F0FF
:1013C0002D3239F4689404C00E943A0A820F911DAC
:1013D000219120532A30C0F31EF4909581959F4FA0
:1013E0000895FB01DC0102C001900D924150504074
:1013F000D8F70895FB01DC018D910190801901104F
:10140000D9F3990B0895FB01DC0101900D920020A6
:10141000E1F70895FB01DC014150504048F0019094
:101420000D920020C9F701C01D9241505040E0F7D5
:101430000895FB019F01E8944230C4F04532B4F4B2
:101440004A3029F497FB1EF4909581959F4F642FA5
:1014500077270E94C931805D8A330CF0895D8193C2
:10146000CB010097A1F716F45DE251931082C901F8
:101470000C94670A7AE0979F902D879F802D910D9D
:1014800011240895FA01CF93FF93EF932230CCF00B
:101490002532BCF4C22F2C2F332744275527FF9326
:1014A000EF930E948C31EF91FF91605D6A330CF0F5
:1014B000695D6193B901CA016050704080409040FD
:1014C00051F710828F919F91CF910C94670ADC01A4
:1014D000FC01672F71917723E1F7329704C07C916B
:1014E0006D9370836291AE17BF07C8F30895DF92C2
:1014F000EF92FF920F931F93CF93DF938C01DD2424
:10150000D3942091CC01D80115968C911597822700
:101510001296ED91FC9113979081982315962C9338
:1015200015971696CD91DC911797E92EFF2432C0BE
:101530008B81282F30E0C70182239323892B39F137
:101540008A81813099F0833041F48091CC0190E020
:1015500082239323892B51F41AC08230C1F48091E5
:10156000CC0190E082239323892B89F41092CE0141
:101570008091CC0190E082239323892B11F0D092AB
:10158000CE018C818093CD01E881F98109950D8090
:10159000DE81C02D209761F68BB3F80194818923F9
:1015A0008BBB882309F0ADCFDF91CF911F910F91B5
:1015B000FF90EF90DF9008951F920F920FB60F9259
:1015C00011242F933F934F935F936F937F938F9348
:1015D0009F93AF93BF93EF93FF93E091CF01F0916F
:1015E000D00180818093CC018FEC91E00E94770A3A
:1015F000FF91EF91BF91AF919F918F917F916F91EB
:101600005F914F913F912F910F900FBE0F901F90C0
:1016100018951F920F920FB60F9211242F933F939C
:101620004F935F936F937F938F939F93AF93BF93EA
:10163000EF93FF93E091D701F091D80180818093DF
:10164000CC0187ED91E00E94770AFF91EF91BF9165
:10165000AF919F918F917F916F915F914F913F914A
:101660002F910F900FBE0F901F9018951F920F9201
:101670000FB60F9211242F933F934F935F936F9365
:101680007F938F939F93AF93BF93EF93FF93E091DB
:10169000DF01F091E00180818093CC018FED91E03A
:1016A0000E94770AFF91EF91BF91AF919F918F9127
:1016B0007F916F915F914F913F912F910F900FBE4E
:1016C0000F901F9018958130910509F0A5C06F5FAC
:1016D0007F4F09F0AAC0EBE5FFE0859194919093CC
:1016E000D0018093CF018BE690E09093D20180935C
:1016F000D10181E08093D3011092D6011092D501DF
:10170000EDE5FFE0859194919093D8018093D70106
:101710008CE690E09093DA018093D90182E0809387
:10172000DB011092DE011092DD01EFE5FFE0859113
:1017300094919093E0018093DF018DE690E0909387
:10174000E2018093E10184E08093E3011092E601DD
:101750001092E5010E9430296093FA017093FB0119
:101760008093FC019093FD010E9430296093FE015B
:101770007093FF0180930002909301020E94302930
:101780006093020270930302809304029093050217
:101790000E943029609316027093170280931802FA
:1017A000909319020E94302960931E0270931F02C9
:1017B000809320029093210286E292E06CE04DE05B
:1017C00020E00E94E5270E94302960934202709336
:1017D000430280934402909345020E943029609313
:1017E00046027093470280934802909349020E94F8
:1017F000302960934C0270934D0280934E02909377
:101800004F020E94302960935002709351028093DE
:101810005202909353020895892B39F46F5F7F4FE2
:1018200021F486E292E00E946C26089580E090E028
:101830006FEF7FEF0E94630B089581E090E06FEF00
:101840007FEF0E94630B08950F931F93CF93DF9355
:10185000EC018B018091AA01882381F080E393E061
:1018600060E071E00E948C2D80E393E0BE010E9455
:10187000492D80E393E0B8010E94C22DDF91CF9102
:101880001F910F910895EF92FF920F931F939C0168
:101890007B0100E313E0C801B9010E94492DC80192
:1018A000B7010E94C22D1F910F91FF90EF900895F4
:1018B0000F931F93DF93CF93CDB7DEB72E970FB65D
:1018C000F894DEBF0FBECDBF6091EE017091EF01C5
:1018D0008E010F5F1F4FC8014AE00E943A2F8EE22F
:1018E00091E0B8010E94430CC8010E94842F8E0130
:1018F000085F1F4F6091EE017091EF01C8014AE04F
:101900000E943A2F86E191E0B8010E94240CC801A0
:101910000E94842F2E960FB6F894DEBF0FBECDBF67
:10192000CF91DF911F910F9108950F931F93DF9334
:10193000CF93CDB7DEB72E970FB6F894DEBF0FBEAC
:10194000CDBF60918401709185018E010F5F1F4FA3
:10195000C8014AE00E943A2F86E491E0B8010E9453
:10196000430CC8010E94842F8E01085F1F4F6091B5
:10197000840170918501C8014AE00E943A2F80E3FA
:1019800091E0B8010E94240CC8010E94842F2E9679
:101990000FB6F894DEBF0FBECDBFCF91DF911F9180
:1019A0000F910895EF92FF920F931F93DF93CF93C0
:1019B000CDB7DEB72E970FB6F894DEBF0FBECDBF02
:1019C0008C017E010894E11CF11CC701B8014AE0BA
:1019D0000E943A2F88E691E0B7010E94430CC701AC
:1019E0000E94842F88E0E82EF12CEC0EFD1EC7012A
:1019F000B8014AE00E943A2F88E491E0B7010E94C2
:101A0000240CC7010E94842F2E960FB6F894DEBFD7
:101A10000FBECDBFCF91DF911F910F91FF90EF903F
:101A20000895EF92FF920F931F93DF93CF93CDB75B
:101A3000DEB7E8970FB6F894DEBF0FBECDBF92E0D9
:101A4000E92E91E0F92E8E010F5F1F4FC801B701FB
:101A50000E94D52E88E193E0B8010E94430CC80192
:101A60000E94842F8E01085F1F4FC801B7010E949A
:101A7000D52E82E193E0B8010E94430CC8010E9478
:101A8000842F8E01015F1F4FC801B7010E94D52E20
:101A90008EEC92E0B8010E94240CC8010E94842FB1
:101AA0008E010A5E1F4FC801B7010E94D52E8EEA33
:101AB00092E0B8010E94240CC8010E94842F8E017C
:101AC000035E1F4FC801B7010E94D52E89E692E040
:101AD000B8010E94240CC8010E94842F8E010C5D65
:101AE0001F4FC801B7010E94D52E8BE092E0B801CC
:101AF0000E94240CC8010E94842F8E01055D1F4F97
:101B0000C801B7010E94D52E86EB91E0B8010E9472
:101B1000240CC8010E94842F8E010E5C1F4FC80147
:101B2000B7010E94D52E8AE691E0B8010E94240CEC
:101B3000C8010E94842FE8960FB6F894DEBF0FBE4E
:101B4000CDBFCF91DF911F910F91FF90EF9008953E
:101B5000EF92FF920F931F93DF93CF93CDB7DEB732
:101B60006C970FB6F894DEBF0FBECDBF7C018E011F
:101B70000F5F1F4FC801B7014AE00E943A2F83EB65
:101B800093E0B8010E94430CC8010E94842FE11425
:101B9000F10461F48E01085F1F4FC80160E070E03E
:101BA0004AE00E943A2F85E893E01FC081E0E816E2
:101BB000F10461F48E01015F1F4FC80161E070E024
:101BC0004AE00E943A2F82E593E00FC082E0E816D7
:101BD000F10489F48E010A5E1F4FC80162E070E0D3
:101BE0004AE00E943A2F8FE193E0B8010E94240C52
:101BF000C8010E94842F6C960FB6F894DEBF0FBE0A
:101C0000CDBFCF91DF911F910F91FF90EF9008957D
:101C1000CF92DF92EF92FF920F931F93DF93CF93B8
:101C2000CDB7DEB72E970FB6F894DEBF0FBECDBF8F
:101C30006091F6017091F701882777FD8095982FC4
:101C40000E948A3020E030E048EC52E40E941631D5
:101C500020E030E048E455E40E94EF2F0E94573026
:101C60006B017C018E010F5F1F4FC801B6014AE076
:101C70000E943A2F85ED93E0B8010E94430CC80101
:101C80000E94842F8E01085F1F4FC801B6014AE0F1
:101C90000E943A2F85EB93E0B8010E94240CC80102
:101CA0000E94842F2E960FB6F894DEBF0FBECDBFD4
:101CB000CF91DF911F910F91FF90EF90DF90CF9028
:101CC00008950F931F93DF93CF93CDB7DEB76C9733
:101CD0000FB6F894DEBF0FBECDBF8091E701882319
:101CE000D9F08E010F5F1F4FC80162E071E00E94C2
:101CF000D52E8BEF93E0B8010E94430CC8010E94DF
:101D0000842F8E01085F1F4FC80162E071E00E94BE
:101D1000D52E8BEE93E01AC08E01015F1F4FC801D4
:101D200062E071E00E94D52E88EE93E0B8010E9437
:101D3000430CC8010E94842F8E010A5E1F4FC80108
:101D400062E071E00E94D52E87ED93E0B8010E9419
:101D5000240CC8010E94842F6C960FB6F894DEBF45
:101D60000FBECDBFCF91DF911F910F910895EF92DC
:101D7000FF920F931F93DF93CF93CDB7DEB72E97CC
:101D80000FB6F894DEBF0FBECDBF02E011E07E01BA
:101D90000894E11CF11CC701B8010E94D52E81E214
:101DA00094E0B7010E94430CC7010E94842F28E0F1
:101DB000E22EF12CEC0EFD1EC701B8010E94D52EBB
:101DC0008EEF93E0B7010E94240CC7010E94842F7C
:101DD0002E960FB6F894DEBF0FBECDBFCF91DF9128
:101DE0001F910F91FF90EF9008950F931F93DF9332
:101DF000CF93CDB7DEB76C970FB6F894DEBF0FBEAA
:101E0000CDBF8091A4019091A50118161906DCF0B0
:101E10008E010F5F1F4FC80162E071E00E94D52E56
:101E200087E494E0B8010E94430CC8010E94842F0B
:101E30008E01085F1F4FC80162E071E00E94D52E3D
:101E400086E394E01AC08E01015F1F4FC80162E073
:101E500071E00E94D52E83E394E0B8010E94430C08
:101E6000C8010E94842F8E010A5E1F4FC80162E0E4
:101E700071E00E94D52E83E294E0B8010E94240C08
:101E8000C8010E94842F6C960FB6F894DEBF0FBE77
:101E9000CDBFCF91DF911F910F9108950F931F93A5
:101EA000DF93CF93CDB7DEB72E970FB6F894DEBF92
:101EB0000FBECDBF60918601709187018E010F5FCB
:101EC0001F4FC8014AE00E943A2F8CE594E0B80108
:101ED0000E94430CC8010E94842F8E01085F1F4F8F
:101EE0006091860170918701C8014AE00E943A2FF3
:101EF0008AE494E0B8010E94240CC8010E94842F57
:101F00002E960FB6F894DEBF0FBECDBFCF91DF91F6
:101F10001F910F9108950F931F93DF93CF93CDB728
:101F2000DEB72E970FB6F894DEBF0FBECDBF60911F
:101F3000A6017091A70177FD29C08091A40190911D
:101F4000A5011816190614F58E010F5F1F4FC80161
:101F50004AE00E943A2F8BE694E0B8010E94430CBD
:101F6000C8010E94842F8E01085F1F4F6091A60157
:101F70007091A701C8014AE00E943A2F8EE594E0D3
:101F8000B8010E94240CC8010E94842F2E960FB61F
:101F9000F894DEBF0FBECDBFCF91DF911F910F919F
:101FA00008950F931F93DF93CF93CDB7DEB72E978E
:101FB0000FB6F894DEBF0FBECDBF60918201709165
:101FC00083018E010F5F1F4FC8014AE00E943A2F24
:101FD0008BEA94E0B8010E94430CC8010E94842F50
:101FE0008E01085F1F4F6091820170918301C801CB
:101FF0004AE00E943A2F8DE694E0B8010E94240C3A
:10200000C8010E94842F2E960FB6F894DEBF0FBE33
:10201000CDBFCF91DF911F910F910895EF92FF9265
:102020000F931F93DF93CF93CDB7DEB72E970FB6E5
:10203000F894DEBF0FBECDBF02E011E07E01089430
:10204000E11CF11CC701B8010E94D52E88EC94E078
:10205000B7010E94430CC7010E94842F38E0E32E91
:10206000F12CEC0EFD1EC701B8010E94D52E8DEAA1
:1020700094E0B7010E94240CC7010E94842F2E9681
:102080000FB6F894DEBF0FBECDBFCF91DF911F9189
:102090000F91FF90EF900895EF92FF920F931F938F
:1020A000DF93CF93CDB7DEB72E970FB6F894DEBF90
:1020B0000FBECDBF02E011E07E010894E11CF11CCF
:1020C000C701B8010E94D52E8DED94E0B7010E94A2
:1020D000430CC7010E94842F48E0E42EF12CEC0E43
:1020E000FD1EC701B8010E94D52E8BEC94E0B7010C
:1020F0000E94240CC7010E94842F2E960FB6F894DC
:10210000DEBF0FBECDBFCF91DF911F910F91FF902A
:10211000EF9008950F931F93DF93CF93CDB7DEB762
:102120002E970FB6F894DEBF0FBECDBF6091EC01C5
:102130007091ED018E010F5F1F4FC8014AE00E94B0
:102140003A2F88E095E0B8010E94430CC8010E9434
:10215000842F8E01085F1F4F6091EC017091ED019B
:10216000C8014AE00E943A2F82EE94E0B8010E9432
:10217000240CC8010E94842F2E960FB6F894DEBF5F
:102180000FBECDBFCF91DF911F910F910895EF92B8
:10219000FF920F931F93DF93CF93CDB7DEB72E97A8
:1021A0000FB6F894DEBF0FBECDBF02E011E07E0196
:1021B0000894E11CF11CC701B8010E94D52E8AE1E8
:1021C00095E0B7010E94430CC7010E94842F58E09C
:1021D000E52EF12CEC0EFD1EC701B8010E94D52E94
:1021E0008AE095E0B7010E94240CC7010E94842F69
:1021F0002E960FB6F894DEBF0FBECDBFCF91DF9104
:102200001F910F91FF90EF9008950F931F93DF930D
:10221000CF93CDB7DEB72E970FB6F894DEBF0FBEC3
:10222000CDBF6091EA017091EB018E010F5F1F4FEE
:10223000C8014AE00E943A2F8EE395E0B8010E945F
:10224000430CC8010E94842F8E01085F1F4F6091CC
:10225000EA017091EB01C8014AE00E943A2F8CE13B
:1022600095E0B8010E94240CC8010E94842F2E968C
:102270000FB6F894DEBF0FBECDBFCF91DF911F9197
:102280000F9108950F931F93DF93CF93CDB7DEB7D0
:102290002E970FB6F894DEBF0FBECDBF6091E80158
:1022A0007091E9018E010F5F1F4FC8014AE00E9443
:1022B0003A2F82E695E0B8010E94430CC8010E94C3
:1022C000842F8E01085F1F4F6091E8017091E90132
:1022D000C8014AE00E943A2F80E495E0B8010E94CC
:1022E000240CC8010E94842F2E960FB6F894DEBFEE
:1022F0000FBECDBFCF91DF911F910F910895EF9247
:10230000FF920F931F93DF93CF93CDB7DEB72E9736
:102310000FB6F894DEBF0FBECDBF02E011E07E0124
:102320000894E11CF11CC701B8010E94D52E82E877
:1023300095E0B7010E94430CC7010E94842F68E01A
:10234000E62EF12CEC0EFD1EC701B8010E94D52E21
:1023500084E695E0B7010E94240CC7010E94842FF7
:102360002E960FB6F894DEBF0FBECDBFCF91DF9192
:102370001F910F91FF90EF900895CF92DF92EF920F
:10238000FF920F931F937C018B0178E9C72E72E0B7
:10239000D72EC601B701F80140810E941A2808947F
:1023A000E11CF11CC601B701F80141810E941A2805
:1023B00082E090E01F910F91FF90EF90DF90CF901F
:1023C00008958AE090E062E871E00E94BD110895EE
:1023D00088E090E06CEE71E00E94BD11089586E007
:1023E00090E06AEE71E00E94BD11089584E090E0F3
:1023F00068EE71E00E94BD11089582E090E064E80B
:1024000071E00E94BD110895DF93CF9300D0CDB746
:10241000DEB78DE690E09A83898380E090E0BE018C
:102420006F5F7F4F0E94BD1182E090E064E871E031
:102430000E94BD1184E090E068EE71E00E94BD1141
:1024400086E090E06AEE71E00E94BD1188E090E0C5
:102450006CEE71E00E94BD118AE090E062E871E0EC
:102460000E94BD118CE090E06CE871E00E94BD110B
:102470008EE090E06EE871E00E94BD110F900F9029
:10248000CF91DF91089587EC9FE190938501809330
:10249000840180E094E09093E9018093E80180E07A
:1024A00093E09093EB018093EA0184E690E09093AF
:1024B000ED018093EC0180ED97E090938301809390
:1024C000820181E090E090938D0180938C018FEFE9
:1024D0009FEF90938F0180938E010E9404120895C4
:1024E000CF92DF92EF92FF920F931F937C018B01AB
:1024F000E8E9CE2EE2E0DE2EC601B7010E941328E5
:10250000F80180830894E11CF11CC601B7010E9408
:102510001328F801818382E090E01F910F91FF90D2
:10252000EF90DF90CF900895DF93CF9300D0CDB799
:10253000DEB780E090E0BE016F5F7F4F0E947012B7
:1025400087EC9FE1909385018093840180E094E083
:102550009093E9018093E80180E093E09093EB0190
:102560008093EA0184E690E09093ED018093EC0182
:1025700080ED97E0909383018093820181E090E069
:1025800090938D0180938C018FEF9FEF90938F013B
:1025900080938E0189819A818C369105F1F482E0D5
:1025A00090E064E871E00E94701284E090E068EED0
:1025B00071E00E94701286E090E06AEE71E00E9485
:1025C000701288E090E06CEE71E00E9470128AE078
:1025D00090E062E871E00E94701289819A818D36E4
:1025E000910519F00E9404122AC082E090E064E88C
:1025F00071E00E94701284E090E068EE71E00E9449
:10260000701286E090E06AEE71E00E94701288E03D
:1026100090E06CEE71E00E9470128AE090E062E857
:1026200071E00E9470128CE090E06CE871E00E9412
:1026300070128EE090E06EE871E00E9470120F90D0
:102640000F90CF91DF910895CF93DF93DB010D9031
:102650000020E9F71197A61BB70BEC01E881F9817F
:102660000280F381E02DAD010995DF91CF910895AE
:1026700080914A02882309F4AFC010924A0286E290
:1026800092E063E071E00E94241364E670E080E071
:1026900090E00E943E2986E292E068E071E00E94AC
:1026A000241364E670E080E090E00E943E2986E218
:1026B00092E06DE071E00E94241364E670E080E037
:1026C00090E00E943E2986E292E06DE071E00E9477
:1026D000241364E670E080E090E00E943E2986E2E8
:1026E00092E06DE071E00E94241364E670E080E007
:1026F00090E00E943E2986E292E06DE071E00E9447
:10270000241364E670E080E090E00E943E2986E2B7
:1027100092E06DE071E00E94241364E670E080E0D6
:1027200090E00E943E2986E292E06DE071E00E9416
:10273000241364E670E080E090E00E943E2986E287
:1027400092E06DE071E00E94241364E670E080E0A6
:1027500090E00E943E2986E292E062E171E00E94F0
:10276000241368EE73E080E090E00E943E2986E248
:1027700092E067E171E00E94241386E292E06FE14B
:1027800071E00E94241386E292E067E271E00E9409
:10279000241386E292E06EE271E00E94241386E246
:1027A00092E065E371E00E94241386E292E06BE31D
:1027B00071E00E94241380914B02882339F086E255
:1027C00092E061E471E00E942413089586E292E0B1
:1027D00067E471E00E94241308958091A80190910C
:1027E000A901181619060CF072C00E943029209118
:1027F0005002309151024091520250915302621B9B
:10280000730B840B950B2091A8013091A9014427EB
:1028100037FD4095542F261737074807590708F00A
:1028200056C00E94302960935002709351028093E9
:102830005202909353020E94F50E0E948B0F8091DA
:102840000E0290910F02892B09F441C00E94302999
:1028500020914C0230914D0240914E0250914F0216
:10286000621B730B840B950B615C744D814090402F
:1028700070F10E94B70E10920F0210920E0286E2C3
:1028800092E06DE471E00E94241368EE73E080E052
:1028900090E00E943E291092F9011092F80106C0C2
:1028A00061E070E080E090E00E943E298091F201BA
:1028B0009091F3010197A1F38091EE019091EF01C6
:1028C0009093F1018093F00181E080939E0108953F
:1028D000DF92EF92FF920F931F93DF93CF93CDB7C9
:1028E000DEB7CF54D0400FB6F894DEBF0FBECDBFD9
:1028F0000E943029209146023091470240914802BF
:1029000050914902621B730B840B950B26173707F6
:102910004807590750F581E08093A3018FEF9FEF9F
:102920009093A5018093A4019093A7018093A601A1
:1029300086E292E00E94372686E292E040E855E285
:1029400060E070E00E947A2586E292E062E571E044
:102950000E9424130E94302960934602709347021C
:102960008093480290934902D0C086E292E00E9490
:102970009626892BA9F58091A4019091A50197FD38
:1029800014C00E94302920914202309143024091AC
:10299000440250914502621B730B840B950B6958DE
:1029A00073418040904008F4B0C00E943029609389
:1029B00042027093430280934402909345028091B7
:1029C000A301882331F01092A5011092A401109266
:1029D000A30186E292E062E571E00E94241395C0B3
:1029E0000E94302960934602709347028093480208
:1029F000909349028E010F5F1F4FC80162E071E0A2
:102A00000E94D52EF8E0EF2EF12CEC0EFD1ED02EFC
:102A1000012F16C086E292E00E947526682F8D3045
:102A2000B1F08A30A1F0882391F0C7010E946B2F8A
:102A30008D2D902FB7010E949A2EC7010E94842FDE
:102A400086E292E00E949626181619061CF37E0173
:102A50000894E11CF11CC70167E571E00E94142E87
:102A6000882341F01092A5011092A40181E0809387
:102A70004A0234C0C7016BE571E00E94142E88231E
:102A800069F081E090E09093A5018093A40186E233
:102A900092E06EE571E00E94241320C0C70163E656
:102AA00071E00E94142E882339F4C70165E671E0B5
:102AB0000E94142E8823B9F0CE01019662E071E0E5
:102AC0000E94EF2E0BC08091A6019091A7012817BC
:102AD000390724F03093A7012093A601CE01019677
:102AE0000E94842F12C08E01015F1F4FC701B801E1
:102AF00040E450E020E030E00E94E72DC8010E9451
:102B0000D3099C0197FFDFCFE9CFC15BDF4F0FB641
:102B1000F894DEBF0FBECDBFCF91DF911F910F9113
:102B2000FF90EF90DF900895EF92FF920F931F9325
:102B3000DF93CF93CDB7DEB7A0970FB6F894DEBF83
:102B40000FBECDBF198200E010E07E010894E11CA9
:102B5000F11C80E393E00E94152C18161906CCF79F
:102B600080E393E00E94462CF701E00FF11F808381
:102B70008A3029F0882319F00F311105A9F4CE010C
:102B80000196080F191FF80110820E94D309A09620
:102B90000FB6F894DEBF0FBECDBFCF91DF911F916E
:102BA0000F91FF90EF9008950F5F1F4FD2CF8230AB
:102BB0009105A9F0833091051CF4019731F408C008
:102BC0008330910579F00497C1F088E060E002C09D
:102BD00088E061E00E94582A87E060E009C088E050
:102BE00060E002C088E061E00E94582A87E061E06E
:102BF0000E94582A86E060E00AC088E061E00E94F6
:102C0000582A87E061E00E94582A86E061E00E942D
:102C1000582A0895CF93DF93EC018091F2019091AF
:102C2000F301892B99F484E06C2F0E94582A89E0E3
:102C300060E00E94582A85E061E00E94582A81E005
:102C400090E09093F3018093F2011DC084E06C2F1B
:102C50000E94582A89E060E00E94582A85E060E0DE
:102C60000E94582A1092F3011092F2018091EE0115
:102C70009091EF01219711F4019701C00196909373
:102C8000EF018093EE01DF91CF91089589E061E03B
:102C90000E94582A84E060E00E94582A85E060E0A3
:102CA0000E94582A1092F3011092F20108959C019B
:102CB000442737FD4095542F60EF79E482E090E09F
:102CC0000E94AE3189E992E0BA01A9010E944D2823
:102CD00008950F931F93DF93CF93CDB7DEB7C654FC
:102CE000D0400FB6F894DEBF0FBECDBF80910E026C
:102CF00090910F028330910509F495C084309105BD
:102D00005CF481309105D9F0823091050CF05EC001
:102D1000892B09F4B8C1CBC18630910509F4FCC0F8
:102D20008730910524F4059709F0C1C1ADC0873003
:102D3000910509F41AC1089709F0B9C15FC18091E2
:102D4000800190918101049709F0B1C18E010F5F5C
:102D50001F4FC80162E071E00E94D52E84EF96E01B
:102D6000B8010E94240CC8010E94842F2091EE011A
:102D70003091EF01809112029091130228173907C8
:102D800011F18E01085F1F4FC80162E071E00E94DF
:102D9000D52E8AEC96E0B8010E94240CC8010E944E
:102DA000842F80911202909113029093F1018093ED
:102DB000F0018091A1019091A2010E9457161092FA
:102DC0007F0110927E0182E090E028C02091EE0108
:102DD0003091EF018091F0019091F10128173907AE
:102DE00009F065C18E01015F1F4FC80162E071E00B
:102DF0000E94D52E8AEA96E0B8010E94240CC801F0
:102E00000E94842F0E94302960931E0270931F023B
:102E1000809320029093210283E090E090930F0230
:102E200080930E0244C10E94302920911E023091ED
:102E30001F024091200250912102621B730B840BF0
:102E4000950B20912202309123024091240250914F
:102E50002502261737074807590708F028C18E01B1
:102E60000A5E1F4FC80162E071E00E94D52E81E822
:102E700096E0B8010E94240CC8010E94842F0E9491
:102E8000C71084E090E0CACF8091800190918101C9
:102E9000049709F00CC18E01035E1F4FC80162E068
:102EA00071E00E94D52E88E696E0B8010E94240CBD
:102EB000C8010E94842F8E010C5D1F4FC80162E083
:102EC00071E00E94D52E8FE296E0B8010E94240C9A
:102ED000C8010E94842F80911402909115022091C4
:102EE000120230911302820F931F9093F10180938D
:102EF000F00197FF04C01092F1011092F00180914F
:102F00009F019091A0010E94571610927F0110928C
:102F10007E0186E090E082CF2091EE013091EF01BA
:102F20008091F0019091F1012817390709F0BFC095
:102F30008E01055D1F4FC80162E071E00E94D52E31
:102F40008FE096E0B8010E94240CC8010E94842FF3
:102F50000E94302960931602709317028093180222
:102F60009093190287E090E059CF0E943029209178
:102F70001602309117024091180250911902621BFB
:102F8000730B840B950B20911A0230911B02409118
:102F90001C0250911D02261737074807590708F0F1
:102FA00086C08E010E5C1F4FC80162E071E00E9476
:102FB000D52E85EE95E0B8010E94240CC8010E9430
:102FC000842F809192019091930190939701809327
:102FD00096018FE790E0909399018093980180E8A3
:102FE0009CE09093F9018093F80183E090E0909346
:102FF00081018093800181E090E010CF8091800179
:1030000090918101049709F052C08E01075C1F4F17
:10301000C80162E071E00E94D52E8CED95E0B80108
:103020000E94240CC8010E94842F8E01005C1F4F57
:10303000C80162E071E00E94D52E88EB95E0B801EE
:103040000E94240CC8010E94842F2091120230910A
:1030500013028091EE019091EF018217930724F4FF
:103060003093F1012093F00180919F019091A00194
:103070000E94571610927F0110927E0110920F024B
:1030800010920E0214C02091EE013091EF01809158
:10309000F0019091F1012817390749F480919E01C0
:1030A000882329F481E080939E010E94C710CA5BA7
:1030B000DF4F0FB6F894DEBF0FBECDBFCF91DF91CB
:1030C0001F910F9108952091EE013091EF018091B1
:1030D000F0019091F101821793071CF481E090E0D8
:1030E00005C0281739072CF480E090E00E940A16EA
:1030F00011C02817390771F480917E0190917F01EA
:10310000892B41F40E94461682E090E090937F0163
:1031100080937E016091F6017091F7012091F80192
:103120003091F901621B730B882777FD8095982FEA
:103130000E948A3020E030E040E15FE30E941631D7
:103140000E945730AB017093090260930802161673
:1031500017063CF481E090E090930702809306020A
:1031600004C010920702109206029A0157FF04C091
:1031700022273327241B350B8091980190919901C8
:10318000820F931F90930B0280930A022091960165
:10319000309197012817390724F430930B022093BC
:1031A0000A02435E5F4F4B33510558F510920B02F4
:1031B00010920A020E9430292091FA013091FB01FD
:1031C0004091FC015091FD01621B730B840B950B28
:1031D00020919A0130919B0140919C0150919D0159
:1031E000261737074807590760F4809180019091AE
:1031F0008101039731F485E090E090938101809301
:10320000800182E0609106020E94582A80910C029F
:10321000882321F083E060E070E005C060910A023D
:1032200070910B0283E00E94D229089581E080937F
:103230000C028EE00E94AC2A892BA1F483E06FE699
:1032400070E00E94D22982E061E00E94582A8EE05C
:103250000E94AC2A892B91F383E060E070E00E9429
:10326000D22915C083E06FE670E00E94D22982E087
:1032700060E00E94582A8EE00E94AC2A892B91F7C8
:1032800083E060E070E00E94D2290E9416198091CC
:10329000F6019091F7019093F9018093F801109253
:1032A0000C0208950F931F93DF93CF93CDB7DEB732
:1032B00065970FB6F894DEBF0FBECDBF082F84E62A
:1032C00090E00E9457168FE00E94AC2A892B71F182
:1032D0008FE00E94AC2A892B89F02091EE01309179
:1032E000EF012F5F3F4F8091F0019091F101821724
:1032F000930721F03093F1012093F0018FE00E94B9
:10330000AC2A892B29F761E070E080E090E00E9410
:103310003E292091F0013091F1018091EE019091D0
:10332000EF012817390779F781E02FC08FE00E945D
:10333000AC2A892B89F42091EE013091EF012150C4
:1033400030408091F0019091F1018217930721F0B4
:103350003093F1012093F0018FE00E94AC2A892B79
:1033600029F361E070E080E090E00E943E296091E6
:10337000F0017091F1018091EE019091EF016817D9
:10338000790779F7002321F480E00E94521962C086
:103390008E010F5F1F4FC8014AE00E943A2F87EA53
:1033A00095E0B8010E94240CC8010E94842F8E0170
:1033B000085F1F4F6091840170918501C8014AE048
:1033C0000E943A2F86E995E0B8010E94240CC801BA
:1033D0000E94842F8E01015F1F4F6091EE0170915A
:1033E000EF018091840190918501681B790BC801E0
:1033F0004AE00E943A2F85E895E0B8010E94240C2B
:10340000C8010E94842F8091E701882359F08091A0
:10341000EE019091EF012091840130918501821B92
:10342000930B02C080E090E00E94D20C8091840156
:10343000909185019093EF018093EE019093F101BB
:103440008093F00180918A0190918B010E94571620
:103450000E94461665960FB6F894DEBF0FBECDBF2C
:10346000CF91DF911F910F910895CF93DF930E9429
:10347000302980910A0290910B02892B09F46CC0CB
:1034800082E00E94AC2AEC018130910509F064C011
:103490000E9430292091FE013091FF0140910002ED
:1034A00050910102621B730B840B950B693C7105F3
:1034B0008105910508F450C080910C02882309F021
:1034C00048C08091F401882391F520918C013091BE
:1034D0008D012130310559F48FEF9FEF90938D01CD
:1034E00080938C0130938F0120938E010AC0D0937A
:1034F0008D01C0938C018FEF9FEF90938F0180938C
:103500008E018CE090E06CE871E00E94BD118EE0CD
:1035100090E06EE871E00E94BD118CE998E1909313
:10352000F7018093F60181E08093F40115C082E0F9
:1035300090E00E94A80D8091EE019091EF01909390
:10354000F1018093F00186E292E06DE471E00E9467
:10355000241381E080930C02DF91CF9108950E94A3
:10356000302982E00E94AC2A019749F480919001B1
:10357000909191019093F7018093F60108958091C5
:103580000A0290910B02892B09F468C00E9430292D
:1035900020910202309103024091040250910502F1
:1035A000621B730B840B950B693C710581059105BA
:1035B00008F454C080910C02882309F04CC080911B
:1035C000F4018823B1F520918C0130918D012130D7
:1035D000310559F48FEF9FEF90938D0180938C010B
:1035E00030938F0120938E010CC081E090E0909386
:1035F0008D0180938C018FEF9FEF90938F018093CB
:103600008E018CE090E06CE871E00E94BD118EE0CC
:1036100090E06EE871E00E94BD1180919001909160
:1036200091019093F7018093F60181E08093F4017A
:10363000089581E090E00E94A80D8091EE019091A4
:10364000EF019093F1018093F00186E292E06DE446
:1036500071E00E94241381E080930C0208950E947F
:1036600030296093FA017093FB018093FC019093E1
:10367000FD018BE00E94AC2A2091F6013091F70108
:10368000892B29F080918C0190918D0104C080914B
:103690008E0190918F01280F391F3093F7012093ED
:1036A000F60108950E9430296093FA017093FB019E
:1036B0008093FC019093FD018BE00E94AC2A209145
:1036C000F6013091F701892B29F480918C019091BA
:1036D0008D0104C080918E0190918F01280F391FB8
:1036E0003093F7012093F60108950E9430296093EA
:1036F000FA017093FB018093FC019093FD018AE035
:103700000E94AC2A2091F6013091F701892B29F40F
:1037100080918C0190918D0104C080918E019091D7
:103720008F01280F391F3093F7012093F601089578
:103730000E9430296093FA017093FB018093FC0191
:103740009093FD018AE00E94AC2A2091F60130910D
:10375000F701892B29F080918C0190918D0104C093
:1037600080918E0190918F01280F391F3093F701BE
:103770002093F60108951F9380919E01813009F0F6
:103780007BC083E10E94AC2A892BE9F48FE690E0AC
:1037900090939701809396018FE390E09093990125
:1037A000809398018091F6019091F70184569040A2
:1037B0009093F9018093F80197FF29C01092F901C5
:1037C0001092F80124C082E10E94AC2A892B49F5AD
:1037D0008FE690E090939701809396018FE390E0BD
:1037E00090939901809398018091F6019091F7014F
:1037F0008C599F4F9093F9018093F80181589C4018
:1038000034F080E89CE09093F9018093F80183E024
:1038100090E0909381018093800181E08093F50195
:103820000EC08091F501882351F08091F6019091AE
:10383000F7019093F9018093F8011092F50181E16D
:103840000E94AC2A892B31F48091EE019091EF0116
:1038500002970AC080E10E94AC2A892B69F480910A
:10386000EE019091EF0102969093F1018093F001A7
:1038700010927F0110927E0180917E0190917F01D4
:10388000029741F481E090E090937F0180937E0164
:103890000E94580C8091800190918101059741F41C
:1038A00084E090E090938101809380010E94080E53
:1038B00010910D021130F9F410920D0280E00E9477
:1038C00052190E94161910921102109210021092B1
:1038D000F9011092F80182E090E090937F018093CB
:1038E0007E0183E090E090938101809380011093AA
:1038F000E7010E94610E0E94691680917E019091FD
:103900007F01892B41F08091800190918101039783
:1039100011F00E9468140E94ED131F910895F8940D
:1039200086E292E00E94712578940895CF92DF920A
:10393000EF92FF920F931F93DF93CF93CDB7DEB734
:10394000CC56D1400FB6F894DEBF0FBECDBF0E945B
:10395000302960934C0270934D0280934E029093F5
:103960004F0280E393E00E94152C892B09F494C642
:1039700080E393E00E94462C992787FD9095A92F1C
:10398000B92FFC01B497E735F10508F085C6EC5C6A
:10399000FF4FEE0FFF1F0590F491E02D09948E016B
:1039A0000F5F1F4FC80162E071E00E94D52E8DE9C4
:1039B0009EE0B8010E94240CC8010E94842F0E943E
:1039C000110D0E947F110E940E100E944C100E9447
:1039D000D10F0E944E0F0E94610E0E94950C0E9412
:1039E000080E0E94580C0E9442110E9405110E946C
:1039F0008A1052C60E94381310929E011092110232
:103A0000109210020E949415BC01909313028093AF
:103A100012028E01085F1F4FC8014AE00E943A2F30
:103A200083E79EE0B8010E94240CC8010E94842F05
:103A300080919201909193019093970180939601C8
:103A40008FE790E0909399018093980180E89CE043
:103A50009093F9018093F80183E090E090938101C5
:103A60008093800181E090E097C08E01015F1F4F3D
:103A7000C80162E071E00E94D52E82E59EE0B801A7
:103A80000E94240CC8010E94842F0E94580C0E949E
:103A9000080E02C60E9494159C0197FD0DC0C90135
:103AA000AA2797FDA095BA2F80931A0290931B0224
:103AB000A0931C02B0931D028E010A5E1F4F40911D
:103AC0001A0250911B0260911C0270911D02C801E4
:103AD0002AE00E94082F83E39EE0D8C50E94941537
:103AE0009C0197FD0DC0C901AA2797FDA095BA2F8B
:103AF0008093220290932302A0932402B093250284
:103B00008E01035E1F4F409122025091230260916B
:103B1000240270912502C8012AE00E94082F85E145
:103B20009EE0B4C510929E01809112029091130202
:103B300090931102809310020E949415BC019093FF
:103B40001302809312028E010C5D1F4FC8014AE0E0
:103B50000E943A2F84EE9DE0B8010E94240CC80117
:103B60000E94842F809194019091950190939701E8
:103B7000809396018FE790E090939901809398014C
:103B80001092F9011092F80183E090E09093810186
:103B90008093800188E090E090930F0280930E0262
:103BA0007BC580918A0190918B010E9457160E94DB
:103BB00094157C0106C061E070E080E090E00E9416
:103BC0003E298091F2019091F3010197A1F3F092C7
:103BD000F101E092F00180918601909187018E15AC
:103BE0009F053CF08091880190918901E816F906C3
:103BF00024F49093F1018093F00110927F011092D0
:103C00007E018E01055D1F4F6091F0017091F10101
:103C1000C8014AE00E943A2F86EC9DE037C50E9419
:103C2000941597FD06C09093E9018093E8010E94E6
:103C3000F6118E010E5C1F4F6091E8017091E90151
:103C4000C8014AE00E943A2F81EA9DE01FC50E9408
:103C5000941597FD06C09093EB018093EA010E94B2
:103C6000EF118E01075C1F4F6091EA017091EB012B
:103C7000C8014AE00E943A2F8CE79DE007C50E94E8
:103C8000941525E08D3D920720F4909315028093C2
:103C900014028E01005C1F4F609114027091150296
:103CA000C8014AE00E943A2F8BE59DE0EFC40E94D4
:103CB00094157C0185369105E8F5B701882777FDD5
:103CC0008095982F0E948A3020E030E048EC52E442
:103CD0000E94EF2F20E030E042E053E40E941631D2
:103CE00020E030E040E251E40E948B2F0E945730E8
:103CF0007093A00160939F018E01095B1F4FC80163
:103D0000B7014AE00E943A2F86E39DE0B8010E9485
:103D1000240CC8010E94842F8E01025B1F4F60910A
:103D20009F017091A001C8014AE00E943A2F85E1ED
:103D30009DE0ACC48E010B5A1F4FC80162E071E0D8
:103D40000E94D52E84EE9CE0A1C40E9494157C01B3
:103D500085E6E816F104E8F5B701882777FD809538
:103D6000982F0E948A3020E030E048EC52E40E9414
:103D7000EF2F20E030E042E053E40E94163120E0D3
:103D800030E040E251E40E948B2F0E945730709344
:103D9000A2016093A1018E01045A1F4FC801B7010F
:103DA0004AE00E943A2F8FEB9CE0B8010E94240C5D
:103DB000C8010E94842F8E010D591F4F6091A101EF
:103DC0007091A201C8014AE00E943A2F8EE99CE05E
:103DD0005DC48E0106591F4FC80162E071E00E9468
:103DE000D52E8DE69CE052C40E9494151816190633
:103DF00074F481E080939E018E010F581F4FC8011B
:103E000062E071E00E94D52E89E49CE03FC41092EC
:103E10009E018E0108581F4FC80162E071E00E94A8
:103E2000D52E83E29CE032C410929E01E0901202F3
:103E3000F0901302C0901002D0901102F092110283
:103E4000E09210020E949415BC019093130280939B
:103E500012028091100290911102681779075CF5A7
:103E60008E0101581F4FC8014AE00E943A2F85EE8B
:103E70009BE0B8010E94240CC8010E94842F8E018F
:103E80000A571F4FC80162E071E00E94D52E8DE9EC
:103E90009BE0B8010E94240CC8010E94842F8091ED
:103EA000100290911102E80EF91EEC18FD08F09234
:103EB0001302E09212028E0103571F4F609112020B
:103EC00070911302C8014AE00E943A2F8FE69BE0EE
:103ED000B8010E94240CC8010E94842F8091940193
:103EE0009091950190939701809396018FE790E0D0
:103EF000909399018093980185E090E090930F0250
:103F000080930E021092F9011092F80183E090E084
:103F10009093810180938001BFC30E9494157C011E
:103F20002CEF883192076CF1809186019091870186
:103F30008E159F0534F18E010C561F4FC801B70135
:103F40004AE00E943A2F84E49BE0B8010E94240CCE
:103F5000C8010E94842FF092EF01E092EE01F092EE
:103F6000F101E092F001F0921102E0921002F09261
:103F70001302E092120281E08093E7010E94580C44
:103F80008BC38E0105561F4FC80162E071E00E948D
:103F9000D52E85E09BE07AC30E9494150097A9F482
:103FA0008E010E551F4FC80162E071E00E94D52EB0
:103FB00086EE9AE0B8010E94240CC8010E94842F6A
:103FC00086E292E06DE471E05DC081309105A9F474
:103FD0008E0107551F4FC80162E071E00E94D52E87
:103FE00088EC9AE0B8010E94240CC8010E94842F3A
:103FF00086E292E067E671E045C08230910509F003
:1040000044C08E0100551F4FC80162E071E00E945C
:10401000D52E8CEA9AE0B8010E94240CC8010E94B7
:10402000842F86E292E067E171E00E94241386E229
:1040300092E06FE171E00E94241386E292E067E271
:1040400071E00E94241386E292E06EE271E00E9429
:10405000241386E292E065E371E00E94241386E275
:1040600092E06BE371E00E94241380914B0288235D
:1040700029F086E292E061E471E004C086E292E019
:1040800067E471E00E94241307C383309105A9F40B
:104090008E0109541F4FC80162E071E00E94D52EC5
:1040A00088E89AE0B8010E94240CC8010E94842F7D
:1040B00086E292E067E471E02FC084309105A9F4B4
:1040C0008E0102541F4FC80162E071E00E94D52E9C
:1040D00085E69AE0B8010E94240CC8010E94842F52
:1040E00086E292E061E471E033C085309105C9F465
:1040F0008E010B531F4FC80162E071E00E94D52E64
:104100008FE39AE0B8010E94240CC8010E94842F1A
:1041100086E292E06CE671E00E94241310924B025A
:10412000BBC286309105D1F48E0104531F4FC801E4
:1041300062E071E00E94D52E82E19AE0B8010E940F
:10414000240CC8010E94842F86E292E062E771E0AD
:104150000E94241381E080934B029EC2079709F0CE
:104160009BC28E010D521F4FC80162E071E00E9498
:10417000D52E81EF99E0B8010E94240CC8010E945D
:10418000842F0E94381388C20E949415BC010097A6
:10419000A9F48E0106521F4FC80162E071E00E942F
:1041A000D52E81ED99E0B8010E94240CC8010E942F
:1041B000842F1092A9011092A8016EC283E0683E7C
:1041C0007807E4F07093A9016093A8018E010F5164
:1041D0001F4FC8014AE00E943A2F8CEA99E0B801CB
:1041E0000E94240CC8010E94842F10925002109249
:1041F000510210925202109253024EC28E01085187
:104200001F4F6091A8017091A901C8014AE00E9466
:104210003A2F8BE899E03AC20E94941583369105B3
:1042200099F48E0101511F4FC80162E071E00E94B4
:10423000D52E8BE699E0B8010E94240CC8010E949B
:10424000842F0E94431228C28E010A501F4FC801BA
:1042500062E071E00E94D52E8DE499E0B8010E94E1
:10426000240CC8010E94842F81E080930D021092DB
:104270000F0210920E0280939E010EC28E01035017
:104280001F4FC80162E071E00E94D52E8FE399E0D4
:10429000B8010E94240CC8010E94842F10920F02C2
:1042A00010920E0281E080939E018091F601909120
:1042B000F7019093F9018093F80106C061E070E086
:1042C00080E090E00E943E298091F2019091F301FC
:1042D0000197A1F38091EE019091EF019093F1018C
:1042E0008093F001D9C10E9494151816190674F430
:1042F00081E08093AA018E010C5F1E4FC80162E02D
:1043000071E00E94D52E85E199E0C0C18E01055F64
:104310001E4FC80162E071E00E94D52E89EE98E040
:10432000B8010E94240CC8010E94842F1092AA0197
:10433000B3C10E94941597FD06C09093ED01809340
:10434000EC010E94E8118E010E5E1E4F6091EC019F
:104350007091ED01C8014AE00E943A2F8FEB98E07E
:1043600095C10E9494157C01B701882777FD80953F
:10437000982F0E948A3020E030E048EC52E40E94FE
:10438000EF2F20E030E048E455E40E94163120E0B1
:1043900030E040E050E00E948B2F0E9457309B019C
:1043A000AC01CB01E114F10409F51092F90110926E
:1043B000F80183E090E090938101809380018FEF7A
:1043C00090E090939701809396018FE790E090930F
:1043D0009901809398018E01075E1E4FC801B901B3
:1043E0004AE00E943A2F86E998E050C164E6E6165A
:1043F000F10419F580E89CE09093F9018093F801AD
:1044000083E090E090938101809380018FEF90E0B2
:1044100090939701809396018FE790E09093990194
:10442000809398018E01005E1E4FC801B9014AE0D9
:104430000E943A2F8FE698E029C137FD2DC1815A9D
:104440009F400CF029C13093F9012093F80183E0DB
:1044500090E090938101809380018FEF90E09093A2
:104460009701809396018FE790E090939901809354
:1044700098018E01095D1E4FC801B9014AE00E94F2
:104480003A2F86E598E002C10E9494157C0185E6EA
:10449000E816F104E8F5B701882777FD8095982F95
:1044A0000E948A3020E030E048EC52E40E94EF2F76
:1044B00020E030E040E053E40E94163120E030E09C
:1044C0004EEF52E40E948B2F0E945730709393015D
:1044D000609392018E01025D1E4FC801B7014AE050
:1044E0000E943A2F81E398E0B8010E94240CC80191
:1044F0000E94842F8E010B5C1E4F6091920170917F
:104500009301C8014AE00E943A2F8DE098E0BEC0B6
:104510008E01045C1E4FC80162E071E00E94D52E3E
:104520008DED97E0B3C00E9494157C01853691050E
:10453000E8F5B701882777FD8095982F0E948A308B
:1045400020E030E048EC52E40E94EF2F20E030E021
:1045500040E053E40E94163120E030E04EEF52E498
:104560000E948B2F0E9457307093950160939401A5
:104570008E010D5B1E4FC801B7014AE00E943A2F21
:1045800087EB97E0B8010E94240CC8010E94842F99
:104590008E01065B1E4F6091940170919501C801D8
:1045A0004AE00E943A2F82E997E070C08E010F5ACC
:1045B0001E4FC80162E071E00E94D52E82E697E0AE
:1045C00065C00E9494159C01409184015091850121
:1045D00018161906B4F48091EE019091EF01841B36
:1045E000950B820F931F9093EF018093EE019093B0
:1045F000F1018093F00130938501209384010E94A2
:10460000FD118E01085A1E4F609184017091850141
:10461000C8014AE00E943A2F80E497E037C00E9428
:1046200094159C010A978338910520F430938B01EF
:1046300020938A0180918A0190918B010E945716E4
:104640008E01015A1E4F60918A0170918B01C80141
:104650004AE00E943A2F82E297E018C00E94941527
:104660001816190634F490938301809382010E94F6
:10467000E1118E010A591E4F6091820170918301F0
:10468000C8014AE00E943A2F81E097E0B8010E94F9
:10469000240CC8010E94842FC459DE4F0FB6F89431
:1046A000DEBF0FBECDBFCF91DF911F910F91FF9065
:1046B000EF90DF90CF900895EF92FF920F931F93AA
:1046C000CF93DF938C01E62EF42E87E090E00E94DA
:1046D0001C2DDC0111961C921E921496EC921497DC
:1046E0001296FC92129716961C921E921597E8014C
:1046F0002A813B81F9018081E5E7FFE0EE0DF11DA4
:10470000E4911396EC931397E82BE901E883E8E62C
:10471000F0E08081E8012C81822B80838A2FDF9159
:10472000CF911F910F91FF90EF9008950F931F93DA
:10473000CF93DF93EC0189010E945C23DC01009799
:1047400091F0EE81FF81309719F49F838E8309C029
:10475000CF010580F681E02D3097D1F7FC01B683BB
:10476000A5830D931C93DF91CF911F910F91089515
:10477000582F9B01E82FF0E0EF59F04F84918823E8
:10478000E1F061157105C9F0833039F0843041F0F2
:10479000823041F4AFECB1E005C0A7EDB1E002C05A
:1047A000AFEDB1E0ED91FC911197808115968C935E
:1047B0001597CD01652F0E94962308958CE060E047
:1047C0000E94322A8CE06FE87CE141E050E00E94D8
:1047D000B8238DE061E00E94322A81E160E00E940E
:1047E000322A81E161E00E94582A80E160E00E9463
:1047F000322A80E161E00E94582A82E160E00E9452
:10480000322A82E161E00E94582A83E160E00E943E
:10481000322A83E161E00E94582A8FE060E00E9422
:10482000322A8FE061E00E94582A8EE060E00E9408
:10483000322A8EE061E00E94582A8EE06FEA7AE127
:1048400043E050E00E94B8238EE065E37AE142E065
:1048500050E00E94B8238BE060E00E94322A8BE097
:1048600061E00E94582A8BE068E97BE143E050E078
:104870000E94B8238BE065E77BE142E050E00E94B4
:10488000B8238AE060E00E94322A8AE061E00E9458
:10489000582A8AE062E57BE143E050E00E94B823B9
:1048A0008AE06FE27BE142E050E00E94B82383E0BF
:1048B00061E00E94322A82E061E00E94322A89E0AF
:1048C00061E00E94322A85E061E00E94322A84E0A1
:1048D00061E00E94322A88E061E00E94322A87E08B
:1048E00061E00E94322A86E061E00E94322A089547
:1048F0000E94DE2380E393E040E052EC61E070E050
:104900000E948F2B86E292E040E855E260E070E082
:104910000E947A250E94302960934C0270934D02C8
:1049200080934E0290934F020E943029609346027A
:1049300070934702809348029093490283E060E0BD
:1049400070E00E94D22982E060E00E94582A80E054
:1049500099E19093F7018093F6018EE00E94AC2AD2
:10496000892B21F01092F7011092F6018091F60147
:104970009091F7019093F9018093F80120918A01B9
:1049800030918B01442737FD4095542F60EF79E437
:1049900082E090E00E94AE3189E992E0BA01A9017B
:1049A0000E94C12889E992E063E678E12FEF3FEFAA
:1049B0004FEF5FEF0E94C92880918A0190918B018F
:1049C0000E94571680E090E00E94D7150E9446167C
:1049D0000E9494120E94110D1092AA010E947F1150
:1049E0000E944C100E940E100E94D10F0E944E0F88
:1049F0000E94610E0E94080E0E94950C0E94580CA5
:104A00000E9442110E9405110E948A1008950F937E
:104A10001F93CF93DF93FC01738D76957170A685FC
:104A2000B7859585772329F08C91892309F454C0A3
:104A300004C08C91892309F04FC08389948920E0B8
:104A400001972FEF8F3F9207D9F7C589D689A685A1
:104A5000B785158560E031E040E050E000E0CE0130
:104A6000202F01972FEF8F3F9207D9F78C91812349
:104A700011F0632B03C0832F80956823330F4F5FA2
:104A80005F4F4830510559F78789908D20E0019795
:104A90002FEF8F3F9207D9F77111609580919602A1
:104AA0002091970290E001968F73907030E082170A
:104AB000930779F0E0919602F0E0EA5AFD4F6083A7
:104AC0008091960290E001968F7390708093960289
:104AD00003C0838D8160838FDF91CF911F910F91F0
:104AE00008958091540290915502009711F00E9410
:104AF00007250895CF92DF92EF92FF920F931F93B5
:104B0000CF93DF93EC017A018B011A8E198E188EE8
:104B10001F8A1E8A1D8A1C8A1B8A20E030E06901D8
:104B2000CC0CDD1CC20ED31EB601660F771F660FBC
:104B3000771FAB014D54514FFA0185919591A59185
:104B4000B4918E159F05A007B107E9F4FB01E95464
:104B5000F14F859194919C8B8B8BFB01E754F14F26
:104B6000859194919E8B8D8BFB01E554F14F85913E
:104B70009491988F8F8BFB01E354F14F8591949121
:104B80009A8F898F06C02F5F3F4F2C30310509F077
:104B9000C6CF8F89988D892B09F449C04C85463141
:104BA00008F03DC090916800483010F484E005C0E2
:104BB0004E3010F082E001C081E0892B80936800C4
:104BC000483028F4EDE6F0E0ADE6B0E00BC04E3042
:104BD00028F0ECE6F0E0ACE6B0E004C0EBE6F0E094
:104BE000ABE6B0E05081483040F481E090E002C094
:104BF000880F991F4A95E2F710C0242F30E04E30FD
:104C000018F42850304002C02E50304081E090E02F
:104C100002C0880F991F2A95E2F7852B8C93898D06
:104C20009A8D20E001972FEF8F3F9207D9F780915F
:104C30005402909155028C179D0781F08B8D8E7FC9
:104C40008B8F9FB7F8941092960280919602809372
:104C50009702D0935502C09354029FBFDF91CF912A
:104C60001F910F91FF90EF90DF90CF900895FC017E
:104C70004485463180F5483028F4EDE6F0E0ADE6B5
:104C8000B0E00BC04E3028F4EBE6F0E0ABE6B0E06D
:104C900004C0ECE6F0E0ACE6B0E05081483040F40F
:104CA00081E090E002C0880F991F4A95E2F710C09A
:104CB000242F30E04E3018F42850304002C02E50DF
:104CC000304081E090E002C0880F991F2A95E2F7FA
:104CD000809585238C930895FC018FEA91E0918360
:104CE0008083CF010E94372608952091540230918D
:104CF00055022817390731F4909197028091960256
:104D0000981719F42FEF3FEF0FC0E0919702F0E0F2
:104D1000EA5AFD4F20818091970290E001968F73AF
:104D200090708093970230E0C90108952091540259
:104D3000309155022817390719F020E030E00EC0F5
:104D4000809196022091970290E0805C9F4F821B99
:104D5000910960E470E00E9479319C01C9010895D5
:104D60000F931F93DC0159968D919C915A97892B33
:104D700049F481E090E013969C938E93129720E083
:104D800030E097C00FB7F8945B968C915B97519683
:104D9000ED91FC91529750962C91509781FF8DC0C8
:104DA0008081822B808359968D919C915A9705968C
:104DB00020E001972FEF8F3F9207D9F75B968C91F8
:104DC0005B9781FF35C031E040E050E070E010E0DB
:104DD000832F90E0862397235196ED91FC91529773
:104DE00050962C915097892B29F08081209528236B
:104DF000208303C08081822B808359968D919C9162
:104E00005A97212F01972FEF8F3F9207D9F7330F32
:104E10004F5F5F4F48305105D9F65196ED91FC91A7
:104E20005297908150968C9150978095892333C0EA
:104E300031E040E050E070E010E0832F90E0862306
:104E400097235196ED91FC91529750962C91509743
:104E5000892B21F08081822B808304C08081209562
:104E60002823208359968D919C915A97212F019741
:104E70002FEF8F3F9207D9F7330F4F5F5F4F4830C7
:104E80005105D9F65196ED91FC915297808150963B
:104E90009C915097892B80830FBF59968D919C913F
:104EA0005A9720E001972FEF8F3F9207D9F721E023
:104EB00030E0C9011F910F9108958081209528232A
:104EC000208371CF20915402309155022817390761
:104ED00049F49FB7F89410929602809196028093BD
:104EE00097029FBF089520915402309155022817D0
:104EF000390731F49091970280919602981719F42E
:104F00002FEF3FEF0AC0E0919702F0E0EA5AFD4F21
:104F10008081282F332727FD3095C90108951F93DD
:104F2000CF93DF93EC01162F862F60E00E94322A88
:104F30008B8D81FD04C0812F61E00E94582A1C875F
:104F4000212F30E0C9018B58904FFC0184918D874F
:104F50002F59304FF9016491E62FF0E0EE0FFF1F5B
:104F6000E95AF04F859194919F878E87DF91CF9179
:104F70001F910895FF920F931F938C01F62E862F99
:104F800061E00E94322A8F2D61E00E94582A8F2D05
:104F900090E0FC01EB58F04FE491D8015096EC936F
:104FA00050978F59904FFC016491E62FF0E0EE0F7F
:104FB000FF1FE35BF04F8591949152969C938E93E3
:104FC00051971F910F91FF900895FF920F931F9398
:104FD0008C01F62EFC011382128288EE93E0A0E091
:104FE000B0E084839583A683B7838FEA91E09183B1
:104FF0008083148A138A168A158A108E178A128E55
:10500000118E838D2170220F8C7F822B838FC8019C
:10501000642F0E94BA27C8016F2D0E948F271F910D
:105020000F91FF900895F999FECF72BD61BDF89A76
:1050300080B50895F999FECF1FBA72BD61BD40BD1C
:105040000FB6F894FA9AF99A0FBE08951F920F922C
:105050000FB60F9211242F933F934F935F936F934B
:105060007F938F939F93AF93BF93EF93FF93E091C1
:105070009D02F0919E020995FF91EF91BF91AF9132
:105080009F918F917F916F915F914F913F912F9160
:105090000F900FBE0F901F901895FC01A3E0440FD6
:1050A000551F661F771FAA95D1F7403080E058073B
:1050B00081E0680780E0780714F481E010C033E0F5
:1050C00075956795579547953A95D1F7403080E0AB
:1050D000580781E0680780E078071CF482E082834B
:1050E00039C023E075956795579547952A95D1F76F
:1050F000403080E0580781E0680780E0780714F4CA
:1051000083E0EDCF92E075956795579547959A9511
:10511000D1F7403080E0580781E0680780E07807E9
:1051200014F484E0DCCF82E0759567955795479538
:105130008A95D1F7403080E0580781E0680780E029
:10514000780714F485E0CBCF85E082834FEF5FEFE3
:1051500060E070E08FB78383F8945183408350936D
:1051600087004093860083818FBF80918100887F74
:1051700080938100809181009281892B80938100AE
:1051800008951092800020E1209381000E944D2814
:1051900008950F931F93CF93DF93EC018B011216A9
:1051A00013061406150624F4BA01A9010E944D281D
:1051B0001D830C8381E080936F00809181009A8130
:1051C000892B80938100DF91CF911F910F910895DA
:1051D0001F920F920FB60F9211242F933F938F932C
:1051E0009F93AF93BF938091A3029091A402A0914B
:1051F000A502B091A6023091A7020196A11DB11D92
:10520000232F2D5F2D3720F02D570196A11DB11DA5
:105210002093A7028093A3029093A402A093A502D7
:10522000B093A60280919F029091A002A091A1024A
:10523000B091A2020196A11DB11D80939F0290938F
:10524000A002A093A102B093A202BF91AF919F913F
:105250008F913F912F910F900FBE0F901F90189537
:105260008FB7F8942091A3023091A4024091A50237
:105270005091A6028FBFB901CA0108959B01AC01EC
:105280007FB7F89480919F029091A002A091A10213
:10529000B091A20266B5A89B05C06F3F19F00196B8
:1052A000A11DB11D7FBFBA2FA92F982F8827860F68
:1052B000911DA11DB11D62E0880F991FAA1FBB1F80
:1052C0006A95D1F7BC012DC0FFB7F89480919F0279
:1052D0009091A002A091A102B091A202E6B5A89B74
:1052E00005C0EF3F19F00196A11DB11DFFBFBA2FF8
:1052F000A92F982F88278E0F911DA11DB11DE2E0C7
:10530000880F991FAA1FBB1FEA95D1F7861B970B21
:10531000885E9340C8F22150304040405040685170
:105320007C4F211531054105510571F6089578949A
:1053300084B5826084BD84B5816084BD85B582609A
:1053400085BD85B5816085BDEEE6F0E08081816038
:105350008083E1E8F0E01082808182608083808138
:1053600081608083E0E8F0E0808181608083E1EB10
:10537000F0E0808184608083E0EBF0E080818160F8
:105380008083EAE7F0E080818460808380818260AE
:105390008083808181608083808180688083109297
:1053A000C10008951F93CF93DF93182FEB0161E0A5
:1053B0000E94322A209709F44AC0CF3FD10509F450
:1053C00049C0E12FF0E0E757F04F84918330C1F0FE
:1053D000843028F4813051F08230B1F50CC0863031
:1053E00019F1873049F1843079F514C084B58068AB
:1053F00084BDC7BD33C084B5806284BDC8BD2EC026
:1054000080918000806880938000D0938900C09351
:10541000880024C080918000806280938000D093B7
:105420008B00C0938A001AC08091B000806880937E
:10543000B000C093B30012C08091B000806280932E
:10544000B000C093B4000AC0C038D1051CF4812F4D
:1054500060E002C0812F61E00E94582ADF91CF9165
:105460001F910895482F50E0CA018B58904FFC01BE
:1054700024914F59504FFA0184918823C1F0E82FAD
:10548000F0E0EE0FFF1FED5BF04FA591B4916623A6
:1054900041F49FB7F8948C91209582238C939FBF01
:1054A00008959FB7F8948C91822B8C939FBF089599
:1054B000482F50E0CA018757904FFC012491CA0140
:1054C0008B58904FFC0194914F59504FFA013491F1
:1054D000332309F440C0222351F1233071F02430EA
:1054E00028F42130A1F0223011F514C02630B1F09B
:1054F0002730C1F02430D9F404C0809180008F7728
:1055000003C0809180008F7D8093800010C084B59F
:105510008F7702C084B58F7D84BD09C08091B000B3
:105520008F7703C08091B0008F7D8093B000E32F10
:10553000F0E0EE0FFF1FE35BF04FA591B4912FB7A2
:10554000F894662321F48C919095892302C08C9164
:10555000892B8C932FBF0895682F70E0CB0187575C
:10556000904FFC012491CB018B58904FFC0144914A
:105570006F59704FFB019491992319F420E030E0AA
:105580003CC0222351F1233071F0243028F4213023
:10559000A1F0223011F514C02630B1F02730C1F04F
:1055A0002430D9F404C0809180008F7703C08091AB
:1055B00080008F7D8093800010C084B58F7702C0FB
:1055C00084B58F7D84BD09C08091B0008F7703C002
:1055D0008091B0008F7D8093B000892F90E0880F7C
:1055E000991F895A904FFC01A591B4918C9120E0AC
:1055F00030E0842311F021E030E0C90108951F92CA
:105600000F920FB60F9211242F933F934F938F93C6
:105610009F93EF93FF934091C6002091E802309151
:10562000E9022F5F3F4F2F7330708091EA02909113
:10563000EB022817390759F0E091E802F091E902EE
:10564000E855FD4F40833093E9022093E802FF9133
:10565000EF919F918F914F913F912F910F900FBE9E
:105660000F901F901895E0913C03F0913D03E05C92
:10567000FF4F8191919120813181821B930B8F7318
:105680009070892B11F00E94961C08951F920F9222
:105690000FB60F9211242F933F934F935F936F9305
:1056A0007F938F939F93AF93BF93EF93FF9320913B
:1056B0002C0330912D0380912E0390912F032817F6
:1056C000390731F48091C1008F7D8093C10016C0ED
:1056D000E0912E03F0912F03E451FD4F4081809122
:1056E0002E0390912F03019660E470E00E947931BF
:1056F00090932F0380932E034093C600FF91EF9168
:10570000BF91AF919F918F917F916F915F914F91D9
:105710003F912F910F900FBE0F901F901895AF9251
:10572000BF92DF92EF92FF920F931F93CF93DF937D
:10573000EC017A018B01DD24403081EE580780E0D6
:10574000680780E0780711F0DD24D39491E0A92E5A
:10575000B12CEC89FD89DD2069F0C5010E8C02C0F9
:10576000880F991F0A94E2F7808360E079E08DE367
:1057700090E005C0108260E874E88EE190E0A80136
:1057800097010E948C312150304040405040569546
:1057900047953795279580E12030380720F0DD20A8
:1057A00011F0DD24D6CFE889F9893083EA89FB89B5
:1057B0002083EE89FF89408121E030E0C9010A8C15
:1057C00002C0880F991F0A94E2F7482B4083EE89A4
:1057D000FF894081C9010B8C02C0880F991F0A9470
:1057E000E2F7482B4083EE89FF894081C9010C8C88
:1057F00002C0880F991F0A94E2F7482B4083EE8974
:10580000FF8980810D8C02C0220F331F0A94E2F7BA
:10581000209528232083DF91CF911F910F91FF9036
:10582000EF90DF90BF90AF900895DC011C96ED9152
:10583000FC911D97E05CFF4F219131918081918116
:10584000281B390B2F733070C9010895DC011C9699
:10585000ED91FC911D97E05CFF4F20813181E05478
:10586000F040DF01AE5BBF4F8D919C9111972817DF
:10587000390719F42FEF3FEF07C08D919C91E80F86
:10588000F91F8081282F30E0C9010895DC011C96A2
:10589000ED91FC911D97E05CFF4F20813181E05438
:1058A000F040DF01AE5BBF4F8D919C91119728179F
:1058B000390719F42FEF3FEF10C08D919C9111978C
:1058C000E80FF91F20818D919C91119701968F739C
:1058D000907011969C938E9330E0C9010895FC015D
:1058E00086859785DC01A05CBF4FFC01EE5BFF4F16
:1058F0002D913C9111978081918128173907C1F72B
:105900000895CF93DF93EC01462FEE85FF85E05C91
:10591000FF4F80819181E054F040019660E470E097
:105920000E9479319C01DF01AE5BBF4F8D919C914C
:10593000119728173907D1F3E05CFF4F80819181DF
:10594000E054F040E80FF91F4083EE85FF85E05CEE
:10595000FF4F31832083EE89FF89208181E090E031
:105960000D8C02C0880F991F0A94E2F7282B208320
:1059700081E090E0DF91CF9108951092330310926F
:10598000320388EE93E0A0E0B0E08093340390937C
:105990003503A0933603B09337038FEB91E09093D8
:1059A00031038093300388EA92E090933D03809323
:1059B0003C038CEE92E090933F0380933E0385EC92
:1059C00090E0909341038093400384EC90E09093A7
:1059D00043038093420380EC90E0909345038093CF
:1059E000440381EC90E0909347038093460386EC58
:1059F00090E0909349038093480384E080934A03A6
:105A000083E080934B0387E080934C0385E0809391
:105A10004D0381E080934E030895CF93DF930E945E
:105A200097290E947824C3E3DBE20E94BB1B2097E6
:105A3000E1F30E94332BF9CF0E94FC070895CF9227
:105A4000DF92EF92FF920F931F93CF93DF937C012E
:105A50006B018A01C0E0D0E00FC0D6016D916D01ED
:105A6000D701ED91FC910190F081E02DC7010995DE
:105A7000C80FD91F015010400115110571F7CE0153
:105A8000DF91CF911F910F91FF90EF90DF90CF901A
:105A90000895EF92FF920F931F93CF93DF937C01B2
:105AA0008B01C0E0D0E0F8010F5F1F4F64916623C7
:105AB00059F0D701ED91FC910190F081E02DC701E3
:105AC0000995C80FD91FEFCFCE01DF91CF911F915C
:105AD0000F91FF90EF900895EF92FF920F931F9315
